:020000040800F2
:10000000B01E002069110008C9030008CB030008D6
:10001000CF030008D3030008D70300080000000046
:10002000000000000000000000000000DB030008EA
:10003000DD03000800000000DF030008E103000802
:100040008311000883110008831100088311000840
:100050008311000883110008831100088311000830
:100060008311000883110008831100088311000820
:100070008311000883110008831100088311000810
:100080008311000883110008831100088311000800
:1000900091500008831100088311000883110008A3
:1000A00083110008831100088311000883110008E0
:1000B000890D0008831100088311000883110008CE
:1000C00083110008831100088311000883110008C0
:1000D00083110008DD100008831100088311000857
:1000E000831100088311000899500008831100084B
:1000F0008311000883110008831100088311000890
:10010000831100088311000883110008831100087F
:10011000831100088311000883110008831100086F
:10012000831100088311000883110008831100085F
:1001300000F002F800F063F80AA090E8000C824496
:100140008344AAF10107DA4501D100F058F8AFF273
:10015000090EBAE80F0013F0010F18BFFB1A43F0A5
:1001600001031847F85700001858000010F8013B29
:100170000A4413F0030408BF10F8014B1D1108BF17
:1001800010F8015B641E05D010F8016B641E01F8C5
:10019000016BF9D1002D15D010F8014B03F00C03C1
:1001A0000C2BA1EB04040ABF10F8013BA4EB831451
:1001B000A4EB032405F1010314F8016B5B1E01F8A5
:1001C000016BF9D5914238BF10F8013BD1D370478C
:1001D0000023002400250026103A28BF78C1FBD850
:1001E000520728BF30C148BF0B607047642905F033
:1001F0006D82002070471FB51FBD10B510BD05F002
:100200002BFB1146FFF7F7FF00F02DF805F049FB37
:1002100003B4FFF7F2FF03BC00F002FF10B5044681
:100220000121042001F0DCFA3CB15348006880B29F
:1002300020F002005049086014E04F48006880B286
:1002400040F002004C4908604C48006820F47F20D0
:100250004A4908600846006840F44C3008600020B5
:100260004749086010BD08B5092000F08AFE00F07B
:10027000EBFD4FF4165000F0E2FE00F012FC414B93
:10028000C0220021084600F0A0FB00F0E2F900F0D7
:1002900077FD002140F2B23000F0DDFC49213A4800
:1002A00000F08FFD00214FF6FF7000F08BFC41F253
:1002B0008831364803F018FA4FF47A71334803F066
:1002C00015FA0020FFF7AAFF4FF4967000F0F4FD36
:1002D0000120FFF7A3FF04F037FE04F01DFE03F03A
:1002E000EDFF04F071FE00F060FA0121284802F0F1
:1002F00070F80121274802F0CEFA3CE04FF47A7002
:1003000000F0DAFD00F0ABF900BF00BF00BF04F061
:1003100076FE214B40220021022000F056FB1F48B0
:10032000006828B11EA005F091F900201B49086063
:1003300000F01FFA00241CE01D4931F8140000F001
:100340000DFA2DF814003DF81400642190FBF1F231
:1003500001FB12053DF8140090FBF1F62B463246E6
:10036000214614A005F072F9642000F0A5FD601C80
:1003700084B2022CE0DBC1E7405C0040040801408D
:10038000B0012142800A0020EC120020000400404D
:100390000024014008000240400B00200000002023
:1003A00067657420612075736220636D640A0A00BA
:1003B0001800002076616C75655B25645D3A2564E4
:1003C0002E2564760A000000704700BFFEE700BFDC
:1003D000FEE700BFFEE700BFFEE7704770477047CB
:1003E000704700000CB50020019000906C48006838
:1003F00040F480306A49086000BF6948006800F432
:10040000003000900198401C0190009818B90198A4
:10041000B0F5A06FF1D16248006800F4003010B16F
:100420000120009001E0002000900098012843D1B5
:100430005C48006840F010005A49086008460068AF
:1004400020F0030008600846006840F002000860E1
:10045000534840685249486008464068486008462A
:10046000406840F4806048600846406820F47C1092
:1004700048600846406840F4E81048600846006854
:1004800040F08070086000BF4548006800F00070D0
:100490000028F9D04248406820F0030040494860F5
:1004A0000846406840F00200486000BF3C48406891
:1004B00000F00C000828F9D10CBD10B5FFF792FF31
:1004C00010BD10B53648006840F00100344908609E
:1004D0000846406834490840314948600846006889
:1004E000324908402E4908600846006820F4802000
:1004F00008600846406820F4FE0048604FF41F0082
:100500008860FFF7DAFF4FF000602949086010BDEE
:1005100010B5002100200022214B5B6803F00C0184
:1005200021B1042906D0082928D107E0214B224C0B
:10053000236027E01F4B204C236023E0184B5B68AF
:1005400003F47010164B5B6803F48032022303EB54
:10055000904022B9194B4343174C23600DE0104BD8
:100560005B6803F4003323B1144B4343124C236004
:1005700003E0104B4343104C236003E00D4B0E4C43
:10058000236000BF00BF064B5B68C3F303130C4C32
:10059000E15C094B1B68CB40074C236010BD000099
:1005A00000100240002002400000FFF8FFFFF6FEAE
:1005B00008ED00E000127A000400002000093D0070
:1005C0000800002008B50121082001F009F90121E7
:1005D000880501F012F94FF44060ADF800000320E7
:1005E0008DF802001C208DF803006946564800F083
:1005F0003BFE0320ADF8000010208DF80300694693
:10060000514800F031FE03214F4800F0DAFE08BDEA
:100610001FB50020ADF804004BF6FF70ADF80600E2
:10062000A020ADF808004FF48060ADF80A0000018A
:10063000ADF80C00454800906946454801F04DFC76
:100640000121434801F0C7FC0121414801F0FFFCB2
:100650001FBD10B5FFF7B6FFFFF7DAFF10BD08B5F5
:1006600000BF4FF400313A4801F0DCFD0028F8D11A
:100670000121374801F0EBFC0121354801F0CFFCA6
:1006800000BF3449324801F0ABFD0028F9D0002208
:1006900080212F4801F019FD00BF2F492C4801F09F
:1006A0009FFD0028F9D0E321294801F008FD00BF93
:1006B0002949891C264801F093FD0028F8D0012122
:1006C000234801F0ACFC00BF2249214801F088FD1D
:1006D0000028F9D0012281211D4801F0F6FC00BF5D
:1006E0001C49491C1A4801F07BFD0028F8D000BFC6
:1006F00018493F31164801F073FD0028F8D014481E
:1007000001F0DFFC8DF800000021114801F09FFC92
:1007100001210F4801F08FFC00BF0E493F310C480A
:1007200001F05EFD0028F8D0094801F0CAFC8DF800
:1007300001000121064801F08AFC9DF801009DF8A6
:10074000001040EA012008BD000C0140801A06009C
:1007500000580040010003008200070002464FF4E9
:10076000A57002FB00F1C81701EB1050C0F30F3069
:10077000704710B50022002014E0002107E0554B1F
:1007800003EB810333F810301A444B1CD9B23229E1
:10079000F5DB322392FBF3F34F4C24F810300022A8
:1007A000431CD8B20228E8DB10BD00B591B001218E
:1007B000084601F008F8494801F0A0FF48480690B3
:1007C00044480790002008906420099000200A9077
:1007D00080200B9040000C9080000D9020200E9007
:1007E00000020F900020109006A93C4802F028F863
:1007F00001213A4802F04FF80121480200F0F0FFD1
:100800004FF4004000F050FF8220ADF800000020BF
:100810008DF803006946334800F026FD0920ADF845
:10082000000010208DF8030003208DF802006946B7
:100830002C4800F019FD01202B4908602B49C1F814
:100840008C0127484C3801F031FD00200190012037
:100850008DF808008DF809004FF460200390002007
:10086000049002208DF8140001A91D484C3801F0B5
:1008700044FD01211A484C3801F076FD0121184849
:100880004C3801F066FD07230122114614484C380C
:1008900001F0CBFD07230222194611484C3801F024
:1008A000C4FD0F484C3801F076FD00BF0C484C38B1
:1008B00001F076FD0028F9D109484C3801F07AFDA5
:1008C00000BF07484C3801F07AFD0028F9D111B07B
:1008D00000BD000080160020180000200800024023
:1008E0004C240140000801408001214200002142C7
:1008F00010B5AF4B1960002217E00023AC4C241F49
:10090000236000F0800323B10123A94C241D236040
:1009100003E00023A64C241D23600123A44C241FC4
:1009200023604306180E531CDAB2082AE5DB0123C4
:100930009F4C236010BD2DE9F84F07460C46154625
:100940003EE02878203800F0FF099A4800EB091BA8
:100950002046E11704EB11710911A4EB011101F01C
:10096000FF0AE11704EB117109111031C9B20091AE
:1009700000261FE007F1B0013144C8B20021FFF7A3
:10098000B7FF00215046FFF7B3FF00210098FFF7A3
:10099000AFFF4FF0000808E01BF8010B0121FFF743
:1009A000A7FF08F1010000F0FF08B8F1080FF3DB22
:1009B000701CC6B2022EDDDB04F10800C4B26D1C4F
:1009C00028780028BDD1BDE8F88F2DE9FC4F0746F7
:1009D0000C4690461D46C8F3471001904FF0000AA0
:1009E0003AE02046E11704EB11710911A4EB011163
:1009F00001F0FF0BE11704EB117109111031C9B2BD
:100A0000009100261FE007F1B0013144C8B2002177
:100A1000FFF76EFF00215846FFF76AFF002100989C
:100A2000FFF766FF4FF0000908E015F8010B012100
:100A3000FFF75EFF09F1010000F0FF09B9F1100FA7
:100A4000F3DB701CC6B2022EDDDB04F11000C4B271
:100A50000AF1010000F0FF0A01988245C1DBBDE800
:100A6000FC8F30B5002419E004F1B001C8B20021B8
:100A7000FFF73EFF00210846FFF73AFF0021102054
:100A8000FFF736FF002505E001210020FFF730FFCA
:100A9000681CC5B2802DF7DB601CC4B2082CE3DBF8
:100AA00030BD10B54448806940F008004249886173
:100AB00042480068C0F313004049086008460068D7
:100AC0003F4908433D4908603C480830006840F40D
:100AD00060403A49083108604FF47A7000F0ECF950
:100AE0000021AE20FFF704FF0021D520FFF700FF13
:100AF00000218020FFF7FCFE0021A820FFF7F8FE70
:100B000000211F20FFF7F4FE0021D320FFF7F0FEA5
:100B100000210846FFF7ECFE00214020FFF7E8FE29
:100B200000218D20FFF7E4FE00211420FFF7E0FEF6
:100B300000212020FFF7DCFE00211020FFF7D8FE67
:100B40000021A120FFF7D4FE0021C820FFF7D0FE2E
:100B50000021DA20FFF7CCFE00210846FFF7C8FE8F
:100B600000218120FFF7C4FE00218F20FFF7C0FE87
:100B70000021D920FFF7BCFE0021F120FFF7B8FECD
:100B80000021DB20FFF7B4FE00210846FFF7B0FE8E
:100B90000021A420FFF7ACFE0021A620FFF7A8FE4D
:100BA0000021AF20FFF7A4FEFFF75BFF10BD0000A0
:100BB000B88121429004002000100240040C014042
:100BC0000000303330B589B005460C4601210220C3
:100BD00000F013FE0121082000F002FE0320ADF812
:100BE000200018208DF8230003208DF8220008A98A
:100BF0003B4800F039FBADF81850ADF81440002028
:100C0000ADF81A002020ADF8160005A9354801F00E
:100C100073FF6020ADF804000120ADF8060000204D
:100C2000ADF80C0008212F4802F008FC01A92D485E
:100C300002F02EF80220ADF80C000821294802F03D
:100C400006FC01A9274802F06EF80121254802F0B0
:100C5000AFFA09B030BD30B589B004460D46012168
:100C6000042000F0CAFD0121082000F0B9FD402059
:100C7000ADF8200018208DF8230003208DF8220005
:100C800008A9174800F0F0FA4021154800F09BFB36
:100C9000ADF81840ADF814500020ADF81A0020202F
:100CA000ADF8160005A9104801F026FF6020ADF848
:100CB00004000120ADF806000020ADF80C0020462D
:100CC00004EBD071C1F34F01ADF80A1008210648BA
:100CD00002F09EFB01A9044801F04BFF09B030BDB2
:100CE000000C0140000400400008004038B50446F4
:100CF0000121082000F074FD4020ADF80000032021
:100D00008DF802000CB1182000E010208DF80300CF
:100D100069464A4800F0A8FA4021484800F051FBD3
:100D20001CB94021454800F04EFB38BD1FB50121DC
:100D3000084600F062FDB320ADF808000320ADF8CE
:100D400004000020ADF80A00ADF8060001A94FF03C
:100D5000804001F0D1FE01221146900702F043FAD3
:100D60001C208DF8000000208DF8010003208DF874
:100D7000020001208DF80300684600F09EFF1FBDB1
:100D800010B5FFF7D3FF10BD10B50121880702F0A1
:100D9000D8FC58B10121880702F0E4FC284800681B
:100DA00020B127480068401E2549086010BD01B5E4
:100DB00023490098086000BF214800680028FBD143
:100DC00008BD13B582B004460020019001218807B8
:100DD00002F0EEF9002001901EE0019800F0010001
:100DE00038B10021174802F0E3F90020FFF77EFF39
:100DF00006E00120FFF77AFF0121124802F0D8F93E
:100E0000019854F820000A21B0FBF1F21046FFF7D8
:100E1000CEFF0198401C0190039901988842DCD3D1
:100E200000214FF0804002F0C3F90021054802F094
:100E3000BFF90020FFF75AFF1FBD0000000C014062
:100E400034150020000800402D4800682D49B0FBF3
:100E5000F1F02D4908700846007800EB4001C1EB25
:100E6000C0104FF6FF7101EAC000284908807047A2
:100E70000146254A12784A434FF0E0235A61002286
:100E80009A611A46126942F001021A6100BF4FF0DE
:100E9000E022106900F001021AB100F48032002A49
:100EA000F5D04FF0E022126922F001024FF0E0236A
:100EB0001A6100229A6170470146144A12884A4317
:100EC0004FF0E0235A6100229A611A46126942F0FB
:100ED00001021A6100BF4FF0E022106900F0010228
:100EE0001AB100F48032002AF5D04FF0E0221269E6
:100EF00022F001024FF0E0231A6100229A6170474C
:100F00000400002000127A00381500203A15002055
:100F100010B54FF4A06000F0CBFE10BD3A4A0A4075
:100F200002433A4B1A60704700B500203849086107
:100F3000C8601420486100208861C86108460068C4
:100F400040F00100086008464068324908403049D6
:100F5000486008460068304908402D490860084646
:100F6000006820F4802008600846406820F4FE00F5
:100F700048600020886000214FF00060FFF7CEFF3E
:100F800000BD30B504460025FFF7CEFF20480068BD
:100F900040F480301E49086000BF1D480068400CC6
:100FA0000028FAD04FF4806019494860A01EC4B2EE
:100FB0000846406840EA844048600846406840F47B
:100FC000803048601548006840F0320013490860DE
:100FD0000F48006840F080700D49086000BF0C4861
:100FE0000068400E0028FAD00948406840F002002E
:100FF0000749486005E006484068C0F3870505F0EA
:101000000305022DF7D130BD80FFFF1F08ED00E082
:10101000001002400000FFF8FFFFF6FE0020024033
:10102000014600BF704700BF4B4A128802F04002E1
:10103000002AF9D0C2B2484B1B1D1A80704710B568
:1010400086B00446012144F2040000F0C9FB424886
:1010500000F02AFC4FF40070ADF8140003208DF866
:10106000160018208DF8170005A93C4800F0FCF880
:101070004FF48060ADF8140004208DF8170005A926
:10108000364800F0F1F825208DF8000003208DF897
:1010900001008DF8020001208DF80300684600F081
:1010A0000CFE01940020ADF80800ADF80A00ADF880
:1010B0000C00ADF810000C20ADF80E0001A9264878
:1010C00000F035FC012240F22551234800F0C7FC16
:1010D0000121214800F0B7FC06B010BD10B540F268
:1010E00025511D4800F0A0FD10B31B4800F01CFD69
:1010F000C4B21B48008800F40040C8B918480088F2
:1011000000F4804060B10A2C03D00020144908800C
:1011100020E01348008840F400401149088019E09D
:101120000D2C06D10E48008840F480400C49088000
:1011300010E00B480088C0F30D000A490C54084821
:101140000088401C0649088008460088C72801DD41
:101150000020088010BD0000003801400008014058
:1011600040150020481700200948804709480047DB
:10117000FEE7FEE7FEE7FEE7FEE7FEE7FEE7FEE747
:10118000FEE7FEE704480549054A064B70470000A4
:10119000C304000831010008B0180020B01E002070
:1011A000B01A0020B01A002010B50446CC48844282
:1011B00008D10121042000F02DFB0021042000F0C3
:1011C00029FB46E0C748844208D10121082000F0ED
:1011D00021FB0021082000F01DFB3AE0C2488442B8
:1011E00008D10121102000F015FB0021102000F093
:1011F00011FB2EE0BD48844208D10121202000F0DF
:1012000009FB0021202000F005FB22E0B8488442C1
:1012100008D10121402000F0FDFA0021402000F01B
:10122000F9FA16E0B348844208D10121802000F089
:10123000F1FA0021802000F0EDFA0AE0AE48844285
:1012400007D10121801500F0E5FA0021A01500F07A
:10125000E1FA10BD10B50121084600F0DBFA0021CB
:10126000012000F0D7FA10BD2DE9F041024600251B
:101270000026002000230024002791F803C00CF072
:101280000F0591F803C00CF0100CBCF1000F03D057
:1012900091F802C04CEA050591F800C0BCF1000FBE
:1012A00031D0146800202BE04FF0010C0CFA00F351
:1012B000B1F800C00CEA03069E4220D183004FF033
:1012C0000F0C0CFA03F7BC4305FA03FC4CEA0404C8
:1012D00091F803C0BCF1280F06D14FF0010C0CFAB5
:1012E00000FCC2F814C00AE091F803C0BCF1480F3A
:1012F00005D14FF0010C0CFA00FCC2F810C0401CE4
:101300000828D1D31460B1F800C0BCF1FF0F34DD60
:10131000546800202EE000F1080C4FF0010808FA94
:101320000CF3B1F800C00CEA03069E4221D1830001
:101330004FF00F0C0CFA03F7BC4305FA03FC4CEA20
:10134000040491F803C0BCF1280F05D100F1080C8A
:1013500008FA0CF8C2F8148091F803C0BCF1480FE9
:1013600007D100F1080C4FF0010808FA0CF8C2F898
:101370001080401C0828CED35460BDE8F0814FF6A1
:10138000FF710180022181700421C1707047024603
:10139000002093680B400BB1012000E00020704753
:1013A0000146886880B2704702460020D3680B402F
:1013B0000BB1012000E0002070470146C86880B2F0
:1013C000704701617047416170470AB1016100E0F7
:1013D00041617047C16070474FF480320A438261B7
:1013E0008161826182698269704702460020434BB5
:1013F00018684FF68073184040EA021008433F4BCC
:10140000186070473E49C8617047F0B50A4600232E
:1014100000240021002500F00046B6F1004F02D163
:10142000364EF16901E0354E7168C0F3034583B271
:1014300000F44016B6F5401F08D121F070612F4E20
:10144000766826F070662D4F7E6012E000F48016FC
:10145000B6F5801F06D1032606FA05F4A14341F034
:10146000706106E0460D360103FA06F6B14341F01D
:10147000706122B1460D360103FA06F6314300F0E1
:101480000046B6F1004F02D11C4EF16101E01B4E47
:101490007160F0BD30B500228B071C0F0F2303FADB
:1014A00004F2164B08338C1053F824309343134C3A
:1014B00008348D1044F8253023468C1053F824301E
:1014C0008C07240F00FA04F423430C4C08348D10CD
:1014D00044F8253030BD0A49DC310860704700000F
:1014E00000080140000C01400010014000140140C0
:1014F00000180140001C0140002001400000014094
:1015000000002042DF48006840F00100DD4908602B
:1015100008464068DC490840DA49486008460068E7
:10152000DA490840D74908600846006820F480205E
:1015300008600846406820F4FE0048604FF41F0031
:1015400088607047CF49096821F48031CD4A116025
:101550001146096821F480211160B0F5803F03D065
:10156000B0F5802F0ED106E0C649096841F48031FC
:10157000C44A116007E0C349096841F4A021C14A87
:10158000116000E000BF00BF704710B501460022A7
:10159000002300204A11012A02D1BA4C236806E038
:1015A000022A02D1B74C236A01E0B64C636A01F00B
:1015B0001F02012494401C400CB1012000E00020D7
:1015C00010BD38B5002000900024002500BF312058
:1015D000FFF7DBFF05460098401C00900098B0F52F
:1015E000A06F01D0002DF2D03120FFF7CEFF08B15F
:1015F000012400E00024204638BD01460020A14A15
:10160000106820F0F80040EAC10010607047A0495F
:1016100008607047024600209A4B586820F47C10FE
:1016200042EA01031843974B58607047984908668F
:10163000704701460020934A506820F00300084399
:10164000506070478F48406800F00C0070470146BA
:1016500000208C4A506820F0F0000843506070472A
:1016600001460020874A506820F4E060084350603B
:10167000704701460020834A506820F4605040EAD9
:10168000C1005060704729B17E4A527A02437D4BB7
:101690005A7204E07B4A527A82437A4B5A727047FC
:1016A0007B49D8310860704701460020754A506870
:1016B00020F440400843506070470021714A2032B6
:1016C0001170704A82F82010012802D004280AD133
:1016D00004E001216B4A2032117005E00521694ABE
:1016E0002032117000E000BF00BF704769490860F8
:1016F00070476449096A0143624A1162704765494B
:1017000044390860704730B50021002200240023CE
:101710005C4D6D6805F00C0121B1042905D0082944
:1017200023D105E05C4D056022E05B4D05601FE0C4
:10173000544D6D6805F47012524D6D6805F4803497
:10174000022505EB92421CB9544D554305600BE050
:101750004C4D6D6805F400351DB1504D5543056085
:1017600002E04D4D5543056002E04B4D056000BF62
:1017700000BF444D6D6805F0F0010909484D6B5CF0
:101780000568DD4045603F4D6D6805F4E061090A7C
:10179000434D6B5C4568DD4085603A4D6D6805F4EE
:1017A0006051C90A3E4D6B5C4568DD40C560354DF2
:1017B0006D6805F44041890B3A4D6B5CC568B5FB1B
:1017C000F3F5056130BD29B12E4A526902432D4B14
:1017D0005A6104E02B4A526982432A4B5A6170478E
:1017E00029B1284A92690243264B9A6104E0254AAE
:1017F00092698243234B9A61704729B1214AD26989
:101800000243204BDA6104E01E4AD26982431D4B39
:10181000DA61704729B11B4AD2680243194BDA607A
:1018200004E0184AD2688243164BDA60704729B147
:10183000144A12690243134B1A6104E0114A1269F7
:101840008243104B1A617047124940390860704753
:101850000F49C86470470B49C87170470948406A0E
:1018600040F0807007494862704701460020054AF1
:1018700092680A400AB1012000E000207047014947
:1018800088727047001002400000FFF8FFFFF6FE6C
:10189000000042428004424200127A0000093D00EA
:1018A000421500205215002010B50446FB48844222
:1018B00009D101218803FFF7ADFF00214FF48040DB
:1018C000FFF7A8FF32E0F648844209D1012148041D
:1018D000FFF7ADFF00214FF40030FFF7A8FF25E030
:1018E000F048844209D101218804FFF7A0FF0021BC
:1018F0004FF48020FFF79BFF18E0EB48844209D1AA
:101900000121C804FFF793FF00214FF40020FFF7E7
:101910008EFF0BE0E548844208D101210805FFF75E
:1019200086FF00214FF48010FFF781FF10BD2DE9E5
:10193000F04786B005460E460024A24600BFA146E9
:101940000027B08900B100BF2F462C8A4CF6FF70EB
:101950000440F08804432C82AC894EF6F310044016
:10196000B08831890843718908430443AC81AC8A4B
:101970004FF6FF400440B0890443AC8201A8FFF752
:10198000C2FEC648874202D1DDF810A001E0DDF8B2
:101990000CA0A88900F4004040B10AEBCA0000EB9B
:1019A0000A1031684900B0FBF1F807E00AEBCA0001
:1019B00000EB0A1031688900B0FBF1F86420B8FB35
:1019C000F0F004012009642101FB1089A88900F4CA
:1019D000004040B1322000EBC900B0FBF1F000F054
:1019E0000700044308E0322000EB09106421B0FB3B
:1019F000F1F000F00F0004432C8106B0BDE8F08741
:101A00004FF41651016000218180C18001810C21B9
:101A1000418100218181704710B502460020108A63
:101A20004FF2FF0318400B884C8823438C882343D4
:101A3000CC8823431843108210BD002101804180CF
:101A40008180C180704721B1828942F40052828135
:101A500004E082894DF6FF731A4082817047F0B529
:101A60000346002400260025002040F66A17B942EC
:101A700000D100BF1846C1F3421401F01F06012730
:101A800007FA06F5012C01D10C3004E0022C01D13B
:101A9000103000E014301AB107682F43076002E0ED
:101AA0000768AF430760F0BD1AB1838A0B43838296
:101AB00002E0838A8B4383827047028A4FF6F07379
:101AC0001A400282028A0A430282704782894FF2D8
:101AD000FF731A40828182890A438281704721B153
:101AE000828942F00202828104E082894FF6FD730E
:101AF0001A4082817047028A4FF6DF731A400282D1
:101B0000028A0A430282704721B1028A42F480426B
:101B1000028204E0028A4BF6FF731A400282704789
:101B2000C1F308028280704701468888C0F308002C
:101B30007047818941F0010181817047028BD2B2E7
:101B40000283028B42EA012202837047028B02F475
:101B50007F420283028B0A430283704721B1828A4B
:101B600042F02002828204E0828A4FF6DF731A403C
:101B70008282704721B1828A42F01002828204E0A0
:101B8000828A4FF6EF731A408282704721B1828AAF
:101B900042F00802828204E0828A4FF6F7731A400C
:101BA0008282704721B1828942F40042828103E03F
:101BB0008289C2F30E028281704721B1828A42F487
:101BC0000062828204E0828A4FF2FF731A408282AE
:101BD0007047828A4FF6FB731A408282828A0A43D8
:101BE0008282704721B1828A42F00202828204E03E
:101BF000828A4FF6FD731A408282704702460020A7
:101C0000B1F5007F00D100BF13880B400BB101205C
:101C100000E00020704701F40072B2F5007F00D1AF
:101C200000BFCA430280704770B5024600240023FB
:101C30000025002040F66A16B14200D100BFC1F372
:101C4000421501F01F03012606FA03F3012D02D10C
:101C50009689334006E0022D02D1168A334001E016
:101C6000968A33400C12012606FA04F41688344092
:101C700013B10CB1012000E0002070BD10B50022AE
:101C8000002340F66A14A14200D100BF0A120124C9
:101C90009440A3B2DC43048010BD00000038014032
:101CA0000044004000480040004C0040005000400C
:101CB00031490143314A1160704770B5002100235A
:101CC0000F22C47804B32D4C246804F4E064C4F5F6
:101CD000E064210AC1F10403CA40447804FA03F124
:101CE0008478144021430901254C0678A1550478D5
:101CF00004F01F050124AC4005786D11AD0005F11D
:101D0000E025C5F8004109E0047804F01F0501242E
:101D1000AC401C4D0678761145F8264070BD1A4A35
:101D20000A400243154B1B1F1A60704739B1134A12
:101D3000121D12680243114B1B1D1A6006E00F4A68
:101D4000121D126882430D4B1B1D1A607047042838
:101D500008D14FF0E021096941F004014FF0E02281
:101D6000116107E04FF0E021096921F004014FF013
:101D7000E0221161704700000000FA050CED00E060
:101D800000E400E080E100E080FFFF1F0020444904
:101D90000860091D0860091D0860091D08604148A8
:101DA0003F4914310860704700213D498279002A7B
:101DB0003AD00A46126803689A430B461A600A1D15
:101DC000126803689A430B1D1A60027911440A686D
:101DD00003681A430A60324A0832126803689A4359
:101DE0002F4B08331A601A1D126803689A432C4B54
:101DF0000C331A604279102A0ED11A1F1268036838
:101E00001A43274B08331A601A1D126803681A43D5
:101E1000234B0C331A600DE02149427911440A68C2
:101E200003681A430A6005E0027911440A680368EE
:101E30009A430A6070470021016001710C214171D1
:101E40000021817170471649103109680143144A15
:101E500010321160704701460020114A1432126896
:101E60000A400AB1012000E0002070470C491431FB
:101E700008607047014600200022094B1B6803EAF6
:101E80000102074B14331B680B4013B10AB1012048
:101E900000E00020704702491431086070470000DC
:101EA00000040140FFFF0F0010B50446F7488442CC
:101EB00009D101214805FFF7BAFC00214FF40010B9
:101EC000FFF7B5FC08E001218805FFF7B0FC002111
:101ED0004FF48000FFF7ABFC10BD2DE9F04385B057
:101EE00004460D460026B1460427DFF8A483A688E1
:101EF0004FF6C07006406846FFF705FCDDF8088025
:101F0000E448B8FBF0F01FFA80F946EA0906A6801B
:101F100020884FF6FE71084020800026DE492868A0
:101F200088420CD828684000B8FBF0F087B2042F34
:101F300000DA04273E4309F10100208427E0E88805
:101F40004BF6FF71884206D1286800EB4000B8FBD1
:101F5000F0F087B209E0286800EBC00101EB001047
:101F6000B8FBF0F087B247F48047C7F30B0008B91D
:101F700047F0010747F4004006434FF4967009FB11
:101F800000F04FF47A7190FBF1F0401C2084A6839E
:101F9000208840F00100208026884FF6F53006406A
:101FA000A8886989084306432680A88929890843A7
:101FB000208105B0BDE8F08341F288310160002145
:101FC00081804BF6FF71C1800021018141814FF476
:101FD00080418181704721B1028842F00102028074
:101FE00004E002884FF6FE731A400280704721B168
:101FF000828842F40062828004E082884FF2FF739C
:102000001A408280704721B1828842F480528280D7
:1020100004E082884EF6FF731A408280704721B137
:10202000028842F48072028004E002884FF6FF6367
:102030001A400280704721B1028842F40072028087
:1020400004E002884FF6FF531A400280704721B126
:10205000028842F48062028004E002884FF6FF3377
:102060001A40028070470A46002181894FF60173A9
:10207000194002F0FE0319438181704721B1828922
:1020800042F00102828104E082894FF6FE731A4019
:102090008281704721B1028842F04002028004E050
:1020A00002884FF6BF731A40028070471AB18388C6
:1020B0000B43838002E083888B43838070470182D7
:1020C00070470146088AC0B2704712B141F0010161
:1020D00002E04FF6FE7319400182704708B50246D0
:1020E000002000900092009808440090009800881A
:1020F00008BD21B1028842F40042028003E0028858
:10210000C2F30E0202807047B1F5006F04D102885D
:1021100042F40062028004E002884FF2FF731A402A
:1021200002807047B1F5005F04D1028842F400528A
:10213000028004E002884DF6FF731A400280704767
:1021400021B1028842F48052028004E002884EF6F7
:10215000FF731A4002807047B1F5006F04D1028806
:1021600042F40062028004E002884FF2FF731A40DA
:102170000280704721B1028842F02002028004E010
:1021800002884FF6DF731A40028070470146088BC1
:102190000012704721B1028842F01002028004E070
:1021A00002884FF6EF731A400280704721B9028807
:1021B00042F08002028004E002884FF67F731A40EA
:1021C00002807047B1F5804F05D0828B4BF6FF73CC
:1021D0001A40828303E0828B42F4804282837047FC
:1021E00070B502460024002500230020958A138B39
:1021F0001B0445EA030626F07F4404EA01068E42EA
:1022000001D1012000E0002070BD10B50146002082
:10221000002300228B8A0A8B120443EA020424F072
:102220007F4010BD0CB502460020002301930093AF
:1022300000920B0F019321F07F41019B1BB1009B8A
:102240001433009303E0090C009B18330093009BA8
:102250001B680B400BB1012000E000200CBD0022E8
:1022600021F07F42D3438382704730B5024600207D
:102270000023948801F0E06504EA154321F07F41D2
:10228000948A0C4054B14BB1012008E00054004046
:1022900000127A0040420F00A0860100002030BDED
:1022A000002221F07F42D3438382704710B5044659
:1022B000FA48844208D101214015FFF7ABFA00210A
:1022C0006015FFF7A7FA17E0F548844208D101210D
:1022D0000015FFF79FFA00212015FFF79BFA0BE08E
:1022E000F048844208D10121C803FFF793FA002186
:1022F0004FF40040FFF78EFA10BD30B502460020C3
:1023000000235068E84C20400D790C6844EA05240D
:10231000204350609068E54C2040D1E902542C43A2
:102320004D7944EA450420439060D06A20F470005F
:102330000C7C641EE4B2234340EA0350D06230BDFB
:1023400000210160017141718160C160012101744E
:10235000704721B1826842F00102826003E0826826
:1023600022F001028260704721B1826842F48072DB
:10237000826003E0826822F480728260704710B548
:102380000023CBB21AB144681C43446002E04468A5
:102390009C43446010BD816841F008018160704732
:1023A000014600208A6802F008020AB1012000E01C
:1023B00000207047816841F0040181607047014648
:1023C00000208A6802F004020AB1012000E0002027
:1023D000704721B1826842F4A002826003E0826803
:1023E00022F4A00282607047014600208A6802F44D
:1023F00080020AB1012000E00020704710B50A46B3
:1024000000210023416821F46041531E41EA433119
:10241000416010BD21B1426842F40062426003E0B5
:10242000426822F4006242607047F0B504460D46EF
:1024300000200021092D11DDE068A5F10A0606EB58
:102440004607072606FA07F18843A5F10A0606EBB8
:10245000460603FA06F10843E0600CE0206905EB4C
:102460004507072606FA07F1884305EB450603FAF8
:1024700006F108432061072A0FDA606B561E06EB4F
:1024800086071F2606FA07F18843561E06EB8606C6
:1024900005FA06F10843606322E00D2A0FDA206B8B
:1024A000D61F06EB86071F2606FA07F18843D61FBC
:1024B00006EB860605FA06F10843206310E0E06AA1
:1024C000A2F10D0606EB86071F2606FA07F18843E0
:1024D000A2F10D0606EB860605FA06F10843E06256
:1024E000F0BD21B1826842F48012826003E082680C
:1024F00022F48012826070470146C86C80B2704737
:1025000066484C300068704721B1426842F48062EE
:10251000426003E0426822F480624260704721B169
:10252000426842F48052426003E0426822F48052E2
:10253000426070470A460021816821F4E04111435E
:102540008160704721B1826842F40042826003E0FA
:10255000826822F400428260704721B1826842F4AE
:102560000212826003E0826822F4021282607047E5
:10257000014600208A6802F400120AB1012000E03E
:1025800000207047F0B504461546002000220026C2
:10259000092911DDE068A1F10A0707EB470C0727BD
:1025A00007FA0CF29043A1F10A0707EB470703FA79
:1025B00007F21043E0600CE0206901EB410C0727B3
:1025C00007FA0CF2904301EB410703FA07F21043BC
:1025D0002061A06BC0F30156EF1C06F1010CA7EBC4
:1025E0000C0707EB870C1F2707FA0CF29043EF1C30
:1025F00006F1010CA7EB0C0707EB870701FA07F2BE
:102600001043A063F0BD10B50A4600210023816B82
:1026100021F44011531E41EA0351816310BD08B5F6
:10262000002300930090009B0B440093009B1A60D2
:1026300008BD08B5024600200090009201F1280074
:10264000009B184400900098006880B208BD0A46BC
:1026500000214168164B19401143416070474162A7
:10266000826270470A460021416821F01F01114330
:102670004160704740B109490831096841F40001DF
:10268000064A0832116007E004490831096821F45C
:102690000001024A08321160704700000024014026
:1026A00000280140003C0140FFFEF0FFFDF7F1FF74
:1026B000FFFD3FFF0246002013680B400BB10120D5
:1026C00000E000207047CA430260704770B50246C0
:1026D0000020002300240B125568CEB205EA060440
:1026E00015681D4015B10CB1012000E0002070BD3F
:1026F00000220A12D34303607047000001684FF6BE
:10270000FE72114001600021016041608160C16082
:102710008D49884208D18C490839496841F00F0138
:10272000894A083A51608AE087491431884208D1C1
:1027300085490839496841F0F001834A083A5160F7
:102740007DE081492831884208D17F4908394968AC
:1027500041F470617C4A083A516070E07A493C313A
:10276000884208D178490839496841F47041764A6D
:10277000083A516063E074495031884208D1724987
:102780000839496841F470216F4A083A516056E0AF
:102790006D496431884208D16B490839496841F470
:1027A0007001694A083A516049E0674978318842C6
:1027B00008D165490839496841F07061624A083AB0
:1027C00051603CE06149884206D1011F096841F02F
:1027D0000F01021F116032E05C491431884208D1B8
:1027E0005A49091F096841F0F001584A121F116047
:1027F00025E056492831884208D15449091F096803
:1028000041F47061514A121F116018E04F493C3188
:10281000884208D14D49091F096841F470414B4A6B
:10282000121F11600BE049495031884207D14749D6
:10283000091F096841F47021444A121F1160704752
:1028400010B50022026847F6F0739A430C6A8B6851
:1028500023430C6923434C6923438C692343CC698C
:1028600023434C6A23438C6A23431A430260CB6898
:1028700043600B6883604B68C36010BD002101603A
:1028800041608160C160016141618161C16101623A
:1028900041628162704721B1026842F00102026028
:1028A00004E002684FF6FE731A40026070471AB1E6
:1028B00003680B43036002E003688B4303607047C7
:1028C000416070470146486880B270470146002069
:1028D000002201F080531BB11C4B083B1A6802E038
:1028E000194B083B1A6802EA01030BB1012000E012
:1028F0000020704700F0805119B11449091F086089
:1029000002E0114908394860704701460020002262
:1029100001F080531BB10D4B083B1A6802E00A4BD3
:10292000083B1A6802EA01030BB1012000E0002015
:10293000704700F0805119B10449091F086002E096
:102940000149083948607047080002400804024005
:1029500010B50446FE48844208D10121C014FEF798
:1029600059FF0021E014FEF755FFC4E0B4F1804F99
:1029700008D101210846FEF75AFF00210120FEF789
:1029800056FFB8E0F348844208D101210220FEF747
:102990004EFF00210220FEF74AFFACE0EE488442E1
:1029A00008D101210420FEF742FF00210420FEF798
:1029B0003EFFA0E0E948844208D101210820FEF74B
:1029C00036FF00210820FEF732FF94E0E4488442FD
:1029D00008D101211020FEF72AFF00211020FEF768
:1029E00026FF88E0DF48844208D101212020FEF73D
:1029F0001EFF00212020FEF71AFF7CE0DA48844207
:102A000008D101214014FEF705FF00216014FEF7F4
:102A100001FF70E0D548844209D10121C804FEF7C6
:102A2000F9FE00214FF40020FEF7F4FE63E0D048E9
:102A3000844209D101210805FEF7ECFE00214FF484
:102A40008010FEF7E7FE56E0CA48844209D1012112
:102A50004805FEF7DFFE00214FF40010FEF7DAFE16
:102A600049E0C548844208D101214020FEF7DFFE3D
:102A700000214020FEF7DBFE3DE0C048844208D143
:102A800001218020FEF7D3FE00218020FEF7CFFE3B
:102A900031E0BB48844208D101218015FEF7C7FE12
:102AA0000021A015FEF7C3FE25E0B648844209D1F7
:102AB00001210804FEF7AEFE00214FF48030FEF73E
:102AC000A9FE18E0B048844209D101214804FEF76C
:102AD000A1FE00214FF40030FEF79CFE0BE0AB4856
:102AE000844208D101218804FEF794FE00214FF4AE
:102AF0008020FEF78FFE10BD00220288944B984282
:102B00000ED0994B98420BD0B0F1804F08D0914B2A
:102B1000984205D0904B984202D0904B984204D1F5
:102B20004FF68F731A404B881A438D4B984207D04B
:102B30008C4B984204D04FF6FF431A40CB881A437F
:102B400002808B8883850B880385814B98420BD04C
:102B5000854B984208D08B4B984205D08A4B9842BF
:102B600002D08A4B984201D10B7A038601238382DB
:102B7000704770B5002400220023058C4FF6FE76C6
:102B800035400584028C8388048B4FF68F752C406A
:102B9000B51E2C400D882C43751E2A400D892A43F2
:102BA0004D882A436A4DA8420BD06F4DA84208D0E9
:102BB000744DA84205D0744DA84202D0734DA8426E
:102BC00013D14FF6F7752A404D892A434FF6FB750E
:102BD0002A408D882A434FF6FF652B404FF6FF555C
:102BE0002B408D892B43CD892B4383800483CD8853
:102BF0008586028470BD70B5002400220023058CF8
:102C00004FF6EF7635400584028C8388048B48F6B6
:102C1000FF752C404FF6FF452C400D884FF6FF7690
:102C200006EA05252C434FF6DF752A400D8906EA92
:102C300005152A434D8806EA05152A43444DA84246
:102C400002D0494DA8421DD14FF67F752A404D89CB
:102C50004FF6FF7606EA05152A434FF6BF752A4060
:102C60008D8806EA05152A434FF6FF352B404FF2B3
:102C7000FF752B408D8906EA85052B43CD8906EA31
:102C800085052B4383800483CD880587028470BD2E
:102C900070B5002400220023058C4FF6FF663540F6
:102CA0000584028C8388848B4FF68F752C404FF6F9
:102CB000FC752C400D882C434FF6FF552A400D899A
:102CC0004FF6FF7606EA05252A434D8806EA0525D4
:102CD0002A431F4DA84202D0234DA8421DD14FF2D6
:102CE000FF752A404D894FF6FF7606EA05252A43EF
:102CF0004FF6FF352A408D8806EA05252A434EF611
:102D0000FF752B404DF6FF752B408D8906EA0515A2
:102D10002B43CD8906EA05152B4383808483CD8818
:102D20008587028470BD70B5002200230024058CC5
:102D30004EF6FF7635400584038C8488828B48F6F6
:102D4000FF752A404FF6FF452A400D8820E000001D
:102D5000002C01400004004000080040000C00402E
:102D6000001000400014004000340140004C0140BD
:102D7000005001400054014000180040001C004079
:102D80000020004000400140004401400048014054
:102D90004FF6FF7606EA05252A434DF6FF752B40D0
:102DA0000D8906EA05352B434D8806EA05352B4388
:102DB000FA4DA84202D0FA4DA84208D14BF6FF7551
:102DC0002C408D894FF6FF7606EA85152C438480CA
:102DD0008283CD88A0F84050038470BD828B4FF26F
:102DE000FF331A408283828B4FF6FF7303EA01237D
:102DF0001A4382837047F0B50C4615460022002125
:102E00000026078C4EF6FF7C07EA0C070784828BAE
:102E1000018C4FF6FF7707EA043640F6FF473A4049
:102E20004FF6FF7707EA05273A434FF6FF7707EAA1
:102E300003373A43D94FB8420ED0D94FB8420BD0DE
:102E4000B0F1804F08D0D74FB84205D0D64FB84226
:102E500002D0D64FB84206D14DF6FF77394046F43E
:102E60008057394305E047F6FF57394044F480570F
:102E7000394382830184F0BD828B4FF6F3731A408D
:102E80008283828B0A4382837047F0B50C461546D5
:102E9000002200210026078C4FF6FF6C07EA0C0782
:102EA0000784828B018C4FF6FF7707EA04264FF6E2
:102EB0000C773A404FF6FF7707EA03172F433A4360
:102EC000B64FB8420ED0B64FB8420BD0B0F1804FDB
:102ED00008D0B44FB84205D0B34FB84202D0B34F78
:102EE000B84206D14FF6FF57394046F48077394350
:102EF00005E04FF2FF57394044F48077394382832D
:102F00000184F0BD028B4FF2FF331A400283028B23
:102F10004FF6FF7303EA01231A4302837047F0B5AB
:102F20000C461546002200210026078C4FF6EF7C48
:102F300007EA0C070784028B018C4FF6FF7707EA3C
:102F4000041640F6FF473A404FF6FF7707EA03378B
:102F50003A434FF6FF7707EA05273A438F4FB842C7
:102F60000ED08F4FB8420BD0B0F1804F08D08D4FAC
:102F7000B84205D08C4FB84202D08C4FB84206D12F
:102F80004FF6DF77394046F01007394305E04FF63A
:102F90005F77394044F01007394302830184F0BD64
:102FA000028B4FF6F3731A400283028B0A430283AB
:102FB0007047F0B50C46154600220021068C4FF6EE
:102FC000FE773E400684028B018C4FF60C76324031
:102FD0007E1C06EA03162E433243704EB0420ED0DA
:102FE0006F4EB0420BD0B0F1804F08D06D4EB04262
:102FF00005D06D4EB04202D06C4EB04206D14FF6B5
:10300000FD76314044F00106314305E04FF6F57698
:10301000314044F00106314302830184F0BD70B5B4
:1030200005460C465D4885420ED05D4885420BD072
:10303000B5F1804F08D05B48854205D05A4885429B
:1030400002D05A48854200D100E000BF208850B924
:103050002389A28861882846FFF7ABFFE1882846CC
:10306000FFF79EFF25E0208804280AD12389A28843
:1030700061882846FFF753FFE1882846FFF742FFA3
:1030800017E0208808280AD12389A2886188284669
:10309000FFF7FBFEE1882846FFF7EEFE09E02389F3
:1030A000A28861882846FFF7A6FEE1882846FFF738
:1030B00095FE70BD2DE9F04105460C46002601271E
:1030C000608808B9022600E00026A088012801D106
:1030D000022700E001272088A0B92389A2886188FF
:1030E0002846FFF766FFE1882846FFF759FF238946
:1030F0003A4631462846FFF712FFE1882846FFF797
:1031000001FF13E02389A28861882846FFF707FFA3
:10311000E1882846FFF7F6FE23893A4631462846DD
:10312000FFF747FFE1882846FFF73AFFBDE8F08147
:103130000A884B881A438B881A43CB881A430B8919
:103140001A434B891A438B891A43A0F844207047CD
:103150004FF6FF71818000210180C18041800172A2
:1031600070470021018041808180C18001814181BF
:103170008181C181704700210180418001218180CE
:103180000021C18001817047002101804180818040
:10319000C18001814181818170470000002C014084
:1031A000003401400004004000080040000C0040D2
:1031B00021B1028842F00102028004E002884FF649
:1031C000FE731A400280704731B1B0F8442042F4D7
:1031D0000042A0F8442005E0B0F84420C2F30E02FB
:1031E000A0F8442070471AB183890B43838102E021
:1031F00083898B43838170478182704741EA020350
:10320000A0F8483070471AB183890B43838102E0EC
:1032100083898B438381704701894FF6F87211408F
:10322000018170470A46002101894FF68F731940CA
:1032300011430181704730B504460D4629462046AA
:10324000FFF7F0FF208940F00700208130BD2DE915
:10325000F04104460D4616461F46602D06D13B46FA
:10326000012231462046FFF75AFE05E03B46012287
:1032700031462046FFF79DFE29462046FFF7D2FF44
:10328000208940F007002081BDE8F08130B50C4670
:1032900000210189C9B24FF6FF7505EA03251543E0
:1032A00025432943018130BD2DE9F04105460E46F5
:1032B00017469846002443463A4631462846FFF7CB
:1032C000E5FF2C894FF6F870044044F007044FF6F0
:1032D0008F70044044F070042C81BDE8F081F0B59B
:1032E00004460D4616461F463B46324629462046B2
:1032F000FFF7CCFF208940F480402081F0BD01859C
:10330000828270470A46002101884FF68F73194068
:10331000114301807047F0B50C4615461E4600214A
:10332000002200230189028B038C4FF6F877394085
:1033300021434FF6FC473A4040F201173A434FF61B
:10334000DD773B404FF6FF7707EA06172F433B43F5
:10335000018102830384F0BD0A460021018B4FF6F0
:103360008F7319401143018370470A460021018B76
:1033700048F6FF7319404FF6FF7303EA022319431F
:10338000018370470A460021818B4FF68F731940E5
:103390001143818370470A460021818B48F6FF73F1
:1033A00019404FF6FF7303EA0223194381837047E4
:1033B00021B1028842F08002028004E002884FF6C8
:1033C0007F731A400280704721B1828842F0040264
:1033D000828004E082884FF6FB731A408280704737
:1033E00021B1828842F00802828004E082884FF690
:1033F000F7731A408280704721B1828842F001023F
:10340000828004E082884FF6FE731A408280704703
:103410000A460021018B4FF6F773194011430183CF
:1034200070470A460021018B4FF2FF7319404FF697
:10343000FF7303EA02231943018370470A46002100
:10344000818B4FF6F77319401143818370470A4609
:103450000021818B4FF2FF7319404FF6FF7303EA8F
:1034600002231943818370470A460021018B4FF6DE
:10347000FB7319401143018370470A460021018BF9
:103480004FF6FF3319404FF6FF7303EA0223194347
:10349000018370470A460021818B4FF6FB73194068
:1034A0001143818370470A460021818B4FF6FF3319
:1034B00019404FF6FF7303EA0223194381837047D3
:1034C0000A460021018B4FF67F7319401143018397
:1034D00070470A460021018BC1F30E014FF6FF73BE
:1034E00003EA02231943018370470A460021818BB6
:1034F0004FF67F7319401143818370470A460021BC
:10350000818BC1F30E014FF6FF7303EA02231943C7
:10351000818370470A460021018C4FF6FD731940E4
:103520001143018470470A460021018C4FF6F7735E
:1035300019401143018470470A460021018C4FF65F
:10354000DF7319404FF6FF7303EA02131943018436
:1035500070470A460021018C4FF67F7319404FF6E1
:10356000FF7303EA02131943018470470A460021DE
:10357000018C4FF6FF5319404FF6FF7303EA022305
:103580001943018470470A460021018C4FF2FF73F2
:1035900019404FF6FF7303EA022319430184704771
:1035A0000A460021018C4DF6FF7319404FF6FF7358
:1035B00003EA023319430184704730B50023012424
:1035C0008C40A3B2048C9C430484048C02FA01F561
:1035D000ADB22C43048430BD30B5002304248C40AC
:1035E000A3B2048C9C430484048C02FA01F5ADB2AE
:1035F0002C43048430BD70B50346002000241846D7
:10360000183001258D40ACB21D8CA5431D8409B135
:10361000082909D100EB6100056825F070050560F7
:103620000568154305600EE00D1FC5F34E052844DF
:10363000056825F4E045056005684FF6FF7606EA63
:1036400002263543056070BD21B1028842F00202B6
:10365000028004E002884FF6FD731A400280704732
:1036600021B1028842F00402028004E002884FF691
:10367000FB731A400280704721B1828842F08002B9
:10368000828004E082884FF67F731A408280704700
:1036900002884FF6F7731A40028002880A430280BC
:1036A000704782884FF68F731A40828082880A435F
:1036B0008280704702894FF6F8731A4002810289AE
:1036C0000A430281704702894FF67F731A400281D4
:1036D00002890A430281704781847047818570475F
:1036E000818670470187704781877047A0F8401036
:1036F000704702884FF6FF431A40028002880A434F
:10370000028070470146888E70470146088F7047D7
:103710000146888F70470146B1F840007047014666
:10372000888C70470146088D704702460020138A36
:103730000B400BB1012000E000207047CA43028219
:10374000704730B50246002000230024158A05EAA0
:103750000103958905EA010413B10CB1012000E0D1
:10376000002030BDCA4302827047000010B50446F5
:103770002CB90120F64909680882002010BDF549DE
:10378000096808688047F24800680A30F6E710B513
:10379000EF480068C078F0494978884213DCEC486B
:1037A0000068807878B9EA480068808858B9E848A5
:1037B0000068C078E64909688872E649096848687F
:1037C0008047002010BD0220FCE710B504462CB94C
:1037D0000120DF4909680882002010BDDD49096821
:1037E00088688047DA4800680C30F6E710B5D84B97
:1037F0001B68D978D64B1B685879D84B1B689A69D7
:1038000090470446D2480068807AE8B13CB9D04875
:103810000068007918B9CE480068807808B10220A5
:1038200010BD8CB9CB490968C8688047C848006892
:103830004079C7490968C872C5480068C078C4495A
:10384000096808730020EBE70220E9E710B5044699
:103850002CB90220BE4909680882002010BD002052
:10386000BF490880BA480068007800F07F0018BBA4
:10387000B7490968487A00F0200131B1B8490978A0
:1038800041F00201B64A117005E0B549097801F02E
:10389000FD01B34A117000F0400131B1B04909781F
:1038A00041F00101AE4A117005E0AD49097801F01F
:1038B000FE01AB4A11703AE0A5480068007800F0BC
:1038C0007F00012801D1A648C8E7A1480068007818
:1038D00000F07F00022828D19D4A1268517901F03A
:1038E0000F0001F080027AB19E4B03EB8002D2F808
:1038F000002C02F03002102A16D1994A127842F0B8
:103900000102974B1A700FE0964B03EB8002D2F83E
:10391000002C02F44052B2F5805F05D1904A127833
:1039200042F001028E4B1A7001E0002096E78949AF
:103930000968086980478A4890E72DE9F04784487C
:103940000068007800F07F08B8F1000F0AD18048C5
:103950000068407A00F0DF007D4909684872002065
:10396000BDE8F087B8F1020F7ED179480068408841
:1039700018B977480068007908B10220F0E7DFF84D
:10398000D89173480068477927F080052C46704825
:103990000068407900F0800038B1724901EB840082
:1039A000D0F8000C00F0300606E06E4901EB840010
:1039B000D0F8000C00F4405699F80000A84204D951
:1039C0001EB163480068807A08B90220C8E707F092
:1039D000800080B1634901EB8400D0F8000C00F056
:1039E000300010284BD1E0B201F01DF8E0B23021D8
:1039F00000F09FFE43E05B4901EB8400D0F8000C2F
:103A000000F44050B0F5805F39D1E4B9564A92F8DD
:103A10002C10E0B201F091F8524A02EB8401D1F887
:103A2000001C4BF68F7201EA020080F4805080F493
:103A3000005040F4004141F080014A4B03EB840206
:103A4000C2F8001C1BE0E0B200F0D5FF454A02EBD3
:103A50008401D1F8001C4BF68F7201EA020080F459
:103A6000805080F4005000E00FE040F4004141F04D
:103A700080013C4B03EB8402C2F8001C00BF3549B7
:103A800009684869804700206AE700BF022067E7AD
:103A90002DE9F0412E480068467926F080073C4623
:103AA0002B480068407900F0800038B12D4901EBC7
:103AB0008400D0F8000C00F0300506E0294901EB45
:103AC0008400D0F8000C00F4405523480078A04250
:103AD00008D91F480068408820B91DB11C480068FB
:103AE000807A10B90220BDE8F08106F08000A0B114
:103AF0001C4A02EB8401D1F8001C48F6BF7201EAAF
:103B0000020080F0100040F4004141F08001154BAC
:103B100003EB8402C2F8001C14E0124A02EB840199
:103B2000D1F8001C4BF68F7201EA020080F480503D
:103B300040F4004141F080010A4B03EB8402C2F8DB
:103B4000001C00BF03490968886980470020CAE754
:103B5000601500206C150020DC1500206415002085
:103B60005615002000500040E015002010B5F74821
:103B70000068407A40F02000F44909684872F4492E
:103B80000968C8698047002010BD10B50246EF489B
:103B90000068438A32B98888C01AEC4C24682082B5
:103BA000002010BD08681844FBE72DE9F041E74804
:103BB000006800F110042688A068C0B1BEB1A588D5
:103BC000B54200D93546A8B2A16888470746208883
:103BD000401B2080608828446080002000F07FFF28
:103BE0008046AAB24146384600F03EFD00BF20881C
:103BF00050B14FF44050D74908800021084600F0EA
:103C00007AFF3020D44908802088A188884204DBCC
:103C10000320CE490968087218E02088002804DDD6
:103C20000520CA490968087210E0208870B906208A
:103C3000C649096808720021C848006880B2801C23
:103C4000C74A42F810103020C3490880BDE8F0810F
:103C50002DE9F047BD48006800F110052E88BB48EB
:103C60000068077AD6B9042F18D1BE480078012819
:103C70000FD10021B948006880B2801CB84A42F8D0
:103C800010103020B449088000BF0020B5490870EA
:103C900003E007271020B049088027E0AC88A6423F
:103CA00001D8042000E002200746B44200D934467F
:103CB000A0B2A96888478046002000F005FF814631
:103CC000A2B24946404600F0B5FCA1B2002000F087
:103CD00012FF2888001B28806888204468803020D4
:103CE0009D49088000029B49088000BF97490968E8
:103CF0000F72BDE8F08770B50226944800684478DA
:103D000092480068007800F07F00002844D1092C18
:103D100003D1FFF73CFD06465FE0052C14D18B482C
:103D20000068C0787F280BDC88480068807838B944
:103D300086480068808818B984480068807A08B18D
:103D4000082565E0002648E0032C0ED17F48006876
:103D5000C078012807D17D480068808818B9FFF72E
:103D600005FF064639E0022637E0012C35D17748B9
:103D70000068C07801280DD174480068808848B96F
:103D800072480068407A00F0200018B1FFF7D5FDB6
:103D9000064622E0022620E06C480068007800F029
:103DA0007F00012805D10B2C17D1FFF71FFD064618
:103DB00013E066480068007800F07F0002280BD10D
:103DC000012C03D1FFF7B9FD064606E0032C04D110
:103DD000FFF75EFE064600E002264EB1E0B2624A00
:103DE0001268516988470646032E01D109250FE064
:103DF0000EB108250CE0062500215848006880B265
:103E0000801C574A42F8101030205349088000BFE8
:103E10004E4909680D7270BD2DE9F84F4B48006896
:103E200045780027BA46062D1BD14848006800781F
:103E300000F07F00002813D14449096888780128E0
:103E400003D149490968CF690AE0022803D14649EC
:103E500009680F6A04E0032802D1434909684F6AE0
:103E6000ADE0002D67D1394800684088002862D154
:103E700036480068C08802285DD13448006800795F
:103E8000002858D131480068007800F07F0030B930
:103E90002E480068808810B9AFF24F678FE02B483A
:103EA0000068007800F07F00012811D127490968D7
:103EB00048792D4909688A690021904700287ED1F8
:103EC00022480068807A002879D0AFF27F6776E0D8
:103ED0001E480068007800F07F0002286FD11B4860
:103EE0000068407900F00F0618480068407900F03B
:103EF000700916480068407900F0800038B11B490D
:103F000001EB8600D0F8000C00F0300806E01749FD
:103F100001EB8600D0F8000C00F4405814480078FB
:103F2000B0424CD9B9F1000F49D1B8F1000F46D0D9
:103F3000AFF2E76743E0082D1CD104480068007821
:103F400000F07F00D8BBAFF2DB7738E060150020CF
:103F50006C1500207015002072150020505C004088
:103F600000600040581500206415002000500040FB
:103F7000DC1500200A2D22D1C5480068007800F029
:103F80007F0001281BD1C2480068807AB8B1C048C0
:103F90000068408898B9BE480068007978B9BC4884
:103FA0000068C08801280AD1B94909684879B94927
:103FB00009688A690021904708B9AFF2F17757B1D3
:103FC000B3480068A0F812A0B148006887610020DB
:103FD000B84700240FE0AE4A12685078AD4A126824
:103FE000116988470446032C05D10920A8490968AE
:103FF0000872BDE8F88FA6480068008A4FF6FF7186
:10400000884204D10920A24909680872F1E7022C0C
:1040100003D09F480068008A20B908209C4909689D
:104020000872E6E79A480068007800F08000E0B384
:1040300097480068C088009095480068008A0099F9
:10404000884204D9924900980968088223E0904880
:104050000068008A8E490968C98888421BDA8C4842
:104060000068008A8B49096891F82C10884203DAAD
:104070000020894908700EE085480068008A85495B
:10408000096891F82C1090FBF1F201FB120010B9B5
:104090000120814908707F48006890F82C107C4806
:1040A00000688182FFF7D4FD07E0FFE7032078492D
:1040B0000968087200037949088000BF99E710B5C4
:1040C000774890F82C10002000F037FD7048006809
:1040D000007A082805D140027049088010207149F3
:1040E00008806B480068007A092801D1012010BDC2
:1040F0000020FCE738B501246B48006880B2001D41
:104100006A4931F8100080B201EB4000009060482D
:104110000068007A092832D0009800785C49096864
:1041200008700098401C0090009800785849096871
:1041300048700098401C0090009800EB44000090EC
:10414000009931F8020B009100F0A0FE5049096877
:104150004880009800EB44000090009931F8020B71
:10416000009100F093FE4A4909688880009800EBAE
:10417000440000900098008845490968C8800120E3
:1041800043490968087242480068C08810B9FFF7BF
:10419000B2FD01E0FFF740FEFFF791FF38BD30B5FB
:1041A0000146434B1A78002014E00306414C04EB0F
:1041B0009353D3F8003C48F68F74234048F28004B0
:1041C0002343C4B2234304063A4D05EB9454C4F888
:1041D000003C401C9042E8D341F08003324C241F45
:1041E000236030BD10B52A480068047A022C01D043
:1041F000042C05D1FFF72CFD25480068047A1CE04B
:10420000062C19D122480068407805280ED1204894
:104210000068007800F07F0040B91D490968C8783F
:10422000FFF7BDFF24490968086A804719490968F2
:1042300088688047082400E00824154909680C7242
:10424000FFF73DFF10BD10B511480068047A022C3D
:1042500001D0042C01D1082412E0032C01D0052C3C
:1042600005D1FFF7A2FC0A480068047A08E0072C91
:1042700005D108490968C8688047082400E0082477
:10428000034909680C72FFF71AFF10BD7047000060
:1042900060150020641500205815002070150020BE
:1042A000E015002072150020505C004000600040C6
:1042B000DC150020005000406C15002010B50848A7
:1042C0000849086002200968087207480749086021
:1042D000074808490860054909680868804710BD13
:1042E0001018002060150020E01500206415002043
:1042F000101600206C15002008B50020009022E167
:10430000C448008800F00F00C349087008460078D0
:1043100000287CD1C1480068C1490880084600884F
:1043200000F03000BF490880BD48008800F44050CC
:10433000BB490880B94909684BF6BF7201EA02001F
:1043400080F4005080F0200040F4004141F08001F2
:10435000B24A1160AF48008800F0100090BB1046D0
:10436000006848F60F71084011460860FFF73AFFF1
:10437000AA4909684BF6BF7201EA0200A8490988F8
:1043800001F4805109B180F48050A549098801F4F5
:10439000005109B180F40050A249098801F01001D0
:1043A00009B180F010009F49098801F0200109B18E
:1043B00080F0200081B241F4004141F08001974A31
:1043C000116008BDFFE79548006880B20090BDF815
:1043D000000000F40060B0B390480068C0F30E0025
:1043E00048F68F7108408D490860FFF783FE8B49BE
:1043F00009684BF6BF7201EA02008949098801F495
:10440000805109B180F480508549098800E056E068
:1044100001F4005109B180F400508249098801F08B
:10442000100109B180F010007E49098801F02001D7
:1044300009B180F0200081B241F4004141F08001D7
:10444000764A1160BDE7FFE7BDF8000000F40040C8
:10445000002878D071480068C0F30E0048F68F71CC
:1044600008406E490860FFF7EEFE6C4909684BF69C
:10447000BF7201EA02006A49098801F4805109B15A
:1044800080F480506649098801F4005109B180F434
:1044900000506449098801F0100109B180F0100052
:1044A0006049098801F0200109B180F0200081B243
:1044B00041F4004141F08001584A116081E75648BB
:1044C0000078594901EB8000D0F8000C80B20090D0
:1044D000BDF8000000F40040C0B14F48007801EB87
:1044E0008000D0F8000CC0F30E0048F68F71084031
:1044F000494909784C4A02EB8101C1F8000C464950
:104500000978491E494A52F821008047BDF8000049
:1045100000F08000B8B140480078434901EB8000CA
:10452000D0F8000C48F60F7108403B4909783E4A24
:1045300002EB8101C1F8000C37490978491E3C4A59
:1045400052F82100804735484430006880B2314934
:10455000088000F4004000287FF4D2AE00BF30E7AE
:1045600010B500244AE047F6FF702C49443108603A
:104570002848008800F00F00274908700846007896
:10458000294901EB8000D0F8000C84B204F400400B
:10459000C8B12148007801EB8000D0F8000CC0F3CE
:1045A0000E0048F68F7108401B4909781E4A02EB3D
:1045B0008101C1F8000C18490978491E1B4A52F8BC
:1045C000210080471AE004F08000B8B1124800785A
:1045D000154901EB8000D0F8000C48F60F71084037
:1045E0000D490978104A02EB8101C1F8000C0A4913
:1045F0000978491E0E4A52F8210080470748443086
:10460000006880B20349088000F400400028AAD165
:1046100010BD0000941500205C150020005C0040D7
:10462000701500207215002000500040BC150020BD
:10463000A0150020F0B5144604F1010C4FEA6C07F8
:10464000DFF848C00CEB41033D460AE00678401C09
:1046500090F800C046EA0C2223F8022B9B1C401C59
:104660006D1E002DF2D1F0BDF0B5561C7510074E31
:1046700006EB41042B4605E034F8047B20F8017B6F
:10468000401C5B1E002BF7D1F0BD00000060004015
:10469000FA4908607047F948006880B27047F749E6
:1046A000091D08607047F548001D006880B270471A
:1046B000F2480830006880B27047F0490C31086059
:1046C0007047EE480C30006880B270474FF6F871C2
:1046D0000140EA4A103211607047E8481030006823
:1046E00080B27047E64B03EB8002C2F8001C7047B3
:1046F0000146E34A02EB8100D0F8000C80B270471B
:1047000010B5DF4B03EB8002D2F8002C48F68F1374
:104710001A400A43DA4C04EB8003C3F8002C10BDA6
:104720000146D74A02EB8100D0F8000C00F4C060CB
:10473000704730B5D24C04EB8003D3F8003C48F608
:10474000BF7403EA040201F010030BB182F01002FF
:1047500001F020030BB182F0200242F4004343F049
:104760008003C74D05EB8004C4F8003C30BD30B574
:10477000C34C04EB8003D3F8003C4BF68F7403EA80
:10478000040201F480530BB182F4805201F400530F
:104790000BB182F4005242F4004343F08003B84D61
:1047A00005EB8004C4F8003C30BD30B503460C4630
:1047B0001846FFF79DFF0546012C07D125F48050D0
:1047C000AF4A02EB8301C1F8000C08E0022C06D1CD
:1047D00025F01000AA4A02EB8301C1F8000C30BD9D
:1047E0000146A74A02EB8100D0F8000C00F030002F
:1047F00070470146A24A02EB8100D0F8000C00F499
:104800004050704710B59E4B03EB8002D2F8002C4D
:1048100048F6BF7302EA030181F0100181F0200124
:1048200041F4004242F08002954C04EB8003C3F84F
:10483000002C10BD10B5924B03EB8002D2F8002C77
:104840004BF68F7302EA030181F4805181F4005129
:1048500041F4004242F08002894C04EB8003C3F82B
:10486000002C10BD864A02EB8001D1F8001C41F4F7
:10487000807148F68F72114048F280021143804BDC
:1048800003EB8002C2F8001C70477D4A02EB8001F6
:10489000D1F8001C48F68F62114048F280021143A3
:1048A000774B03EB8002C2F8001C7047744A02EB9E
:1048B0008001D1F8001C48F68F62114048F2800256
:1048C00011436F4B03EB8002C2F8001C70476C4A27
:1048D00002EB8001D1F8001C41F4807148F68F7220
:1048E000114048F280021143654B03EB8002C2F88D
:1048F000001C7047624A02EB8001D1F8001C41F4B1
:10490000807148F68F72114048F2800211435C4B6F
:1049100003EB8002C2F8001C7047594A02EB800189
:10492000D1F8001C48F68F62114048F28002114312
:10493000534B03EB8002C2F8001C70470146504AFB
:1049400002EB8100D0F8000C00F03000102801D1FB
:10495000012070470020FCE70146494A02EB810034
:10496000D0F8000C00F44050B0F5805F01D1012078
:1049700070470020FCE7424A02EB8001D1F8001C9E
:10498000C1F30E0148F68F7211403D4B03EB8002DC
:10499000C2F8001C70473A4A02EB8001D1F8001CB3
:1049A00048F60F721140364B03EB8002C2F8001C30
:1049B0007047334A02EB8001D1F8001C48F68F7231
:1049C00011404CF2800211432D4B03EB8002C2F8E0
:1049D000001C70472A4A02EB8001D1F8001C48F6FF
:1049E0008F72114048F2C0021143254B03EB800245
:1049F000C2F8001C7047224A02EB8001D1F8001C6B
:104A000001F4804171B102EB8001D1F8001C48F63D
:104A10008F7211404CF280021143194B03EB80025C
:104A2000C2F8001C7047164A02EB8001D1F8001C46
:104A300001F0400171B102EB8001D1F8001C48F691
:104A40008F72114048F2C00211430D4B03EB8002FC
:104A5000C2F8001C704710B5094B03EB8002D2F876
:104A6000002C48F68F731A4048F280031A430A4319
:104A7000034C04EB8003C3F8002C10BD405C0040E5
:104A8000005000400146FC4A02EB8100D0F8000CC7
:104A900000F00F00704710B54A105200F74B1B682A
:104AA0009BB203EBC003F64C44F8132010BD10B5C5
:104AB0004A105300F14A126892B202EBC002121D72
:104AC000EF4C44F8123010BD0146EC48006880B24B
:104AD00000EBC100EA4A32F8100080B2704701468C
:104AE000E648006880B200EBC100001DE44A32F8DD
:104AF000100080B27047E14A126892B202EBC00225
:104B0000921CDF4B43F81210704702463E290BDD22
:104B1000481101F01F030BB9431E98B24FF4004334
:104B200043EA8023136007E0481001F001030BB152
:104B3000431C98B283021360704710B50246CF48F9
:104B4000006880B200EBC200801DCD4C04EB400336
:104B50003E290BDD481101F01F040CB9441EA0B220
:104B60004FF4004444EA80241C6007E0481001F040
:104B700001040CB1441CA0B284021C6010BD0146AB
:104B8000BE48006880B200EBC100801CBC4A32F80D
:104B90001000C0F3090070470146B848006880B2B1
:104BA00000EBC100801DB64A32F81000C0F30900C6
:104BB000704730B54B105B00B04C2468A4B204EBD6
:104BC000C004AF4D45F8143053105C00AB4B1B686C
:104BD0009BB203EBC0031B1D45F8134030BD10B55D
:104BE0004A105200A54B1B689BB203EBC003A44CB8
:104BF00044F8132010BD10B54A1053009F4A1268A4
:104C000092B202EBC002121D9D4C44F8123010BD4E
:104C100001469A48006880B200EBC100984A32F819
:104C2000100080B2704701469448006880B200EBE3
:104C3000C100001D924A32F8100080B2704730B5B2
:104C40000B46012B1FD18D49096889B201EBC001C8
:104C5000891C8B4D05EB41043E2A0BDD511102F0FE
:104C60001F050DB94D1EA9B24FF4004545EA812537
:104C7000256007E0511002F001050DB14D1CA9B2ED
:104C80008D0225600AE0022B08D17C49096889B2AF
:104C900001EBC001891C7A4C44F81120012B1FD173
:104CA0007649096889B201EBC001891D744D05EB95
:104CB00041043E2A0BDD511102F01F050DB94D1EB6
:104CC000A9B24FF4004545EA8125256007E051105F
:104CD00002F001050DB14D1CA9B28D0225600AE05C
:104CE000022B08D16549096889B201EBC001891D11
:104CF000634C44F8112030BD30B5034601291FD163
:104D00005E48006880B200EBC300801C5C4D05EB80
:104D100040043E2A0BDD501102F01F050DB9451E5F
:104D2000A8B24FF4004545EA8025256007E0501001
:104D300002F001050DB1451CA8B2850225600AE00C
:104D4000022908D14D48006880B200EBC300801CE6
:104D50004B4C44F8102030BD30B5034601291FD11B
:104D60004648006880B200EBC300801D444D05EB4F
:104D700040043E2A0BDD501102F01F050DB9451EFF
:104D8000A8B24FF4004545EA8025256007E05010A1
:104D900002F001050DB1451CA8B2850225600AE0AC
:104DA000022908D13548006880B200EBC300801D9D
:104DB000334C44F8102030BD01463048006880B2C2
:104DC00000EBC100801C2E4A32F81000C0F309002D
:104DD000704701462948006880B200EBC100801D81
:104DE000274A32F81000C0F30900704701462348F3
:104DF000006880B200EBC100801D214A32F810002B
:104E000000F47C4008B1012070471C48006880B263
:104E100000EBC100801C1A4A32F81000C0F30900F0
:104E200008B10220F0E70020EEE710B5012910D10B
:104E3000114B03EB8002D2F8002C48F68F731A4016
:104E400048F2C0031A430C4C04EB8003C3F8002C57
:104E500011E002290FD1084B03EB8002D2F8002C9D
:104E600048F68F731A404CF280031A43024C04EB4D
:104E70008003C3F8002C10BD00500040505C00407F
:104E800000600040024641EA022070470146CAB273
:104E90000B1243EA0220704700201D4908604FF4BE
:104EA0003F401C490880084600881949091F0860CE
:104EB000002070472DE9F04104460E46154604F0E7
:104EC0007F00FFF701FE0746AAB239463046FFF7DA
:104ED000B1FBA9B204F07F00FFF70DFE0020BDE892
:104EE000F0812DE9F04104460E46002504F07F00D4
:104EF000FFF752FE054604F07F00FFF7F0FD07467E
:104F00002A4639463046FFF7AFFB2846BDE8F08118
:104F1000445C00406A15002010B50020FCF7C0FB7F
:104F20000121C805FCF769FC10BD03205349086046
:104F300070475348817A19B10521504A116002E047
:104F400001214E4A116070470EB54FF4A060FCF786
:104F5000AFFE4FF48020FCF79EFF4FF480200090BE
:104F600008208DF8050001208DF806006846FCF742
:104F70001BFF14208DF8080002208DF80900002086
:104F80008DF80A0001208DF80B0002A8FCF795FEB1
:104F90002A208DF8080001208DF8090002A8FCF7EE
:104FA0008CFE0EBD38B505460C46002000908DF8ED
:104FB00000508DF80140022269468120FFF77AFFF8
:104FC0000120FFF71FFC38BD53212E4A11703121FB
:104FD0005170322191703021D17031211171352100
:104FE0005171302191713721D171082004E03021B5
:104FF000244A1154411CC8B22328F8DB704710B56D
:10500000232220498120FFF755FF0120FFF7FAFBFB
:1050100010BD30B50B46002100BF16E00A24B4EBEA
:10502000107F05D9302404EB107403F8114005E01B
:10503000412404EB10740A3C03F8114000010025E0
:105040004C00641C1D554C1CE1B29142E6DB30BDA6
:1050500070B50D480468001D0568001D06683444DD
:1050600054B1082209492046FFF7D3FF042207491B
:1050700010312846FFF7CDFF70BD000074160020E8
:10508000101800202C180020E8F7FF1F79150020C9
:1050900010B500F023F810BD10B54FF48020FCF7D8
:1050A000FAFE10BD01200A490870704710B50220B1
:1050B000FFF772FDC4B22246D8210648FFF7D4FAA2
:1050C0000220FFF7B7FB01200349086010BD000074
:1050D00074150020751500200000002010B588B060
:1050E000002468480068684908800846008800F481
:1050F000004066490988084008B1FFF7FDF862489A
:10510000008800F4806061490988084030B14FF69A
:10511000FF305C4908605E49486880475A4800880B
:1051200000F4005059490988084018B14DF6FF7045
:10513000544908605448008800F480505349098855
:10514000084030B14EF6FF704E490860002000F074
:1051500011FA4D48008800F400604C490988084065
:1051600060B14C48007810B100F0E4F902E0022090
:1051700000F000FA4FF2FF70424908604248008890
:1051800000F4007041490988084040B14FF6FF50D3
:105190003C49086040480078401C3F4908703A4844
:1051A000008800F48070394909880840002866D0DA
:1051B0004FF6FF6033490860081D006800F40040A6
:1051C000002856D035480068401C3449086008461D
:1051D0000068032850D92B48001F006800F0080021
:1051E000002849D12748001F006880B22C49086078
:1051F000002408E02B4901EB8400D0F8000C80B2B9
:105200004DF82400641C082CF4D32548006840F0B5
:105210000100234908600846006880B21949091F47
:1052200008601F48006820F001001D49086008461A
:10523000006880B21349091F086000BF1148006868
:1052400000F480600028F9D04FF6FF300D49086067
:10525000002408E05DF8240080B2124A02EB8401C9
:10526000C1F8000C641C082CF4D300200B49086022
:1052700002E0002009490860072000F07BF908B02F
:1052800010BD0000445C0040941500206A15002009
:10529000E0150020781600209615002098150020B3
:1052A0009C1500200050004010B5FFF7D1FE0020F3
:1052B00084490968887200F01BF9FFF7EDFD0020B2
:1052C0008149086010BD10B500207E4909688872C8
:1052D0007C490968C8727D48C0797A490968487272
:1052E0000020FFF7F3F94FF400710020FFF708FAF0
:1052F00010210020FFF71DFA18210020FFF7D7FB2F
:1053000058210020FFF7C7FB0020FFF7CFFA7048B5
:1053100090F82C100020FFF710FC0020FFF78AFA0D
:105320004FF4C0610120FFF7EBF94FF480710120C9
:10533000FFF7B1FB04210120FFF7DDFB0021012075
:10534000FFF715FA20210120FFF7F3F94FF4C061B0
:105350000220FFF7D5F9D8210220FFF7A8FB03218F
:105360000220FFF7EAFB4FF440510220FFF7FFF95C
:1053700000210220FFF7DDF90020FEF710FF0120D9
:105380005149086010BD5348817A11B105214E4A38
:105390001160704704204C4908607047704770479F
:1053A000014629B90120474A12681082002070473F
:1053B0004948FCE710B5044648492046FEF7E5FB9E
:1053C00010BD10B5044646492046FEF7DEFB10BD71
:1053D00070B504460025062C1AD13A4800680078BA
:1053E00000F07F00012813D136480068407978B971
:1053F000344800688078222802D1AFF2390512E0E3
:1054000030480068807821280DD1AFF257050AE0B6
:105410002C480068007800F07F00212803D1032C7D
:1054200001D1AFF283050DB9022070BD2548006897
:10543000856100212348006841820020A8470020A0
:10544000F3E720480068C1782348016000207047D6
:1054500000B502461B480068007800F07F00212854
:1054600004D10B2A02D1FFF7ECFF00BD0220FCE7BC
:1054700010B504461B492046FEF787FB10BD10B54A
:10548000044619492046FEF780FB10BD70B505465D
:105490000C480068C478042C01DD002070BD13485E
:1054A00000EBC4012846FEF770FBF7E7024600292F
:1054B00001DD02207047002A01DD0220FAE700200A
:1054C000F8E700006015002074160020CA58000894
:1054D000E015002010180020D81500204C160020E0
:1054E00044160020341600203C16002054160020DC
:1054F0000121514801600020504A10801046008868
:105500004D4A10600020121D10604FF4E0504B4ACD
:10551000108010460088484A106000207047012023
:10552000454908600020091D08600320091F086024
:105530000020704710B54048006884B244F0080469
:105540003D480460006884B244F004043A480460B2
:10555000FFF7EBFC10BD10B53748006884B224F0AB
:10556000040435480460FFF7E4FC4FF43F4032493F
:10557000086010BD70B50546072D01D03048057094
:105580002F48007808284ED2DFE800F004111A20D6
:105590002B384E4F2B48006828B9FFF7DCFF062058
:1055A0002749087002E005202549087041E0FFF70F
:1055B000D2FF04202249087001202249086038E007
:1055C00002201F4948700320087032E01C484078D0
:1055D000401E1B4948700846407808B904200870EE
:1055E00027E01548006884B244F0100412480460B3
:1055F0000520134908700A2048701AE010484078C6
:10560000401E0F4948700846407858B90A4800685B
:1056100084B224F0100408480460062008700020BA
:105620000849086005E000BF00BF06200449087073
:1056300000BF00BF70BD0000405C00406A15002044
:10564000791600207C160020704700000FB4044932
:1056500010B503AA029800F0D1F810BC5DF814FB55
:105660003C1500202DE9F0410E4604460020206242
:105670002046E168884730B3252805D0D4E90121C8
:105680009047206A401CF2E7E168204600278847DF
:10569000050018D0A5F14100192802D820354FF493
:1056A00000673246294620462760FAF79FFD40B141
:1056B000012804D0F61D26F007060836D8E7361D67
:1056C000D6E72846DAE7206ABDE8F0812DE9F04107
:1056D0000646002410687529314615A510D0AFF391
:1056E0000080002802DA404212A507E031688A07EC
:1056F00001D511A502E0490704D510A5012401E058
:10570000AFF3008000210A2306F1240707E0B0FB75
:10571000F3F203FB1200303078541046491C002885
:10572000F5D123462A463046BDE8F04100F00CB8DA
:10573000000000002D0000002B00000020000000F1
:1057400070477047704770472DE9F0470D469946FE
:105750009246044600F124080168880604D5E069F1
:1057600021F01001216000E00120A84201DD471B6B
:1057700000E00027A1697A1902EB0900081AA0616C
:105780002078C00602D42046AFF30080002608E04F
:10579000D4E901211AF806009047206A401C761CC3
:1057A00020624E45F4DB2078C0060AD52046AFF3D0
:1057B000008006E0D4E9012130209047206A401C97
:1057C0002062381EA7F10107F4DC07E0D4E90121CB
:1057D00018F805009047206A401C2062281EA5F199
:1057E0000105F3DC2046AFF300802078000602D5E7
:1057F0000220BDE8F0870120FBE70000074B70B5F1
:105800000D467B4400F011F80446284600F020F8CD
:1058100010B14FF0FF3070BD204670BD21B8FFFFC2
:1058200001694A1C02610878704700B58FB0CDE964
:1058300001310021059105497944CDE90310114654
:105840006846FFF70FFF0FB000BD0000E5FFFFFF48
:10585000007B00F080007047754600F029F8AE46E6
:1058600005006946534620F00700854618B020B56C
:10587000FBF788FCBDE820404FF000064FF0000722
:105880004FF000084FF0000B21F00701AC46ACE8E8
:10589000C009ACE8C009ACE8C009ACE8C0098D4655
:1058A00070470446AFF300802046FAF7B1FC0000D1
:1058B000004870475018002012010002000000400C
:1058C000838810110002010203010902290001016D
:1058D00000E0320904000002030000000921100169
:1058E000000122270007058103230020070502038A
:1058F00002001005FF09FFA1010501150025FF1990
:105900000029FF9523750881020502190029FF155A
:105910000025FF950175089102C0040309041A03CC
:105920007F5EDE5D1F66FC7F3575505BD1796280DE
:10593000096750966C51F85322035A0054004500F1
:1059400020007A66FD80B65B455C00000000000028
:105950000000000000000000000000007C5900086A
:1059600000000020801600006C010008E4650008BB
:105970008016002030080000D001000822000150ED
:1059800005A24A040001F00A0102030406070809FF
:10599000000132FC2B22023050050C020C021610C2
:1059A0000990D0BCD0BC90000302100D001824FE5A
:1059B000448C0003020702010C1005D8B04C80187B
:1059C0001009010201C038E438E05A120203B3089A
:1059D000065523F804511008010204000204F85A85
:1059E00012043B2007009060F860908C1160500614
:1059F0002020FC20200C41724142222001C1A14103
:105A000093400880601C020004035D120455117568
:105A100021553208C013020370100618844424185C
:105A2000A8111950070008042424D824200640B0E7
:105A300088FC8063112550063C242424C418500699
:105A4000F824242CC02424050C04E41C2D2161839B
:105A5000D8243C100538444444C132036C930010F0
:105A60009141A641B5335088F011F122900171BAED
:105A7000300604885020003A10041804C49C45687D
:105A80004005F804E494C011B51005E09CF080BF17
:105A900021632304FCB432026C21E4520C9C2304E5
:105AA000FCF04118112433740C2482030C1571345A
:105AB00007F0080444CC408D1118155E520454219F
:105AC0003D12002E216C310D27060446114813D0DB
:105AD0000C2432027846044311273406FC3CC03CB7
