:020000040800F2
:1000000090090020DD0D0008390300083B030008BB
:100010003F030008430300084703000800000000F6
:100020000000000000000000000000004B0300087A
:100030004D030008000000004F03000851030008B2
:10004000F70D0008F70D0008F70D0008F70D000880
:10005000F70D0008F70D0008F70D0008F70D000870
:10006000F70D0008F70D0008F70D0008F70D000860
:10007000F70D0008F70D0008F70D0008F70D000850
:10008000F70D0008F70D0008F70D0008F70D000840
:10009000E93E0008F70D0008F70D0008F70D00080D
:1000A000F70D0008F70D0008F70D0008F70D000820
:1000B000F70D0008F70D0008F70D0008F70D000810
:1000C000F70D0008F70D0008F70D0008F70D000800
:1000D000F70D0008510D0008F70D0008F70D000896
:1000E000F70D0008F70D0008F13E0008F70D0008B5
:1000F000F70D0008F70D0008F70D0008F70D0008D0
:10010000F70D0008F70D0008F70D0008F70D0008BF
:10011000F70D0008F70D0008F70D0008F70D0008AF
:10012000F70D0008F70D0008F70D0008F70D00089F
:1001300000F002F800F05FF80AA090E8000C82449A
:100140008344AAF10107DA4501D100F054F8AFF277
:10015000090EBAE80F0013F0010F18BFFB1A43F0A5
:1001600001031847E0450000004600000A444FF034
:10017000000C10F8013B13F0070408BF10F8014B06
:100180001D1108BF10F8015B641E05D010F8016B4B
:10019000641E01F8016BF9D113F0080F1EBF10F8AF
:1001A000014BAD1C0C1B09D16D1E58BF01F801CBD2
:1001B000FAD505E014F8016B01F8016B6D1EF9D555
:1001C0009142D6D37047000000230024002500266A
:1001D000103A28BF78C1FBD8520728BF30C148BFAA
:1001E0000B607047642904F07181002070471FB5CF
:1001F0001FBD10B510BD04F02FFA1146FFF7F7FF31
:1002000000F02DF804F04DFA03B4FFF7F2FF03BC41
:1002100000F040FD10B504460121042001F01AF958
:100220003CB13A48006880B220F0020037490860CB
:1002300014E03648006880B240F00200334908609C
:100240003348006820F47F20314908600846006880
:1002500040F44C30086000202E49086010BD08B5FD
:1002600000F0A8FC00F010FD4FF4E16000F0DFFCAE
:1002700000F0A7F900F091FC0020FFF7CBFF4FF44E
:10028000967000F0D4FC0120FFF7C4FF03F088FD56
:1002900003F06EFD02F03EFF03F0C2FD00F07DFBB7
:1002A00001211D4801F0CFFE01211C4802F02DF96B
:1002B0002BE04FF47A7000F0BAFC00F0C1FA00BFF6
:1002C00000BF00BF00F04DFB00241CE0144931F8D2
:1002D000140000F03BFB2DF814003DF814006421DD
:1002E00090FBF1F201FB12053DF8140090FBF1F6D2
:1002F0002B46324621460BA004F0A8F8642000F0FB
:1003000096FC601C84B2022CE0DBD2E7405C00402B
:1003100004080140B00121420024014008000240CD
:100320001600002076616C75655B25645D3A256476
:100330002E2564760A000000704700BFFEE700BF6C
:10034000FEE700BFFEE700BFFEE77047704770475B
:10035000704700000CB50020019000906C480068C8
:1003600040F480306A49086000BF6948006800F4C2
:10037000003000900198401C0190009818B9019835
:10038000B0F5A06FF1D16248006800F4003010B100
:100390000120009001E0002000900098012843D146
:1003A0005C48006840F010005A4908600846006840
:1003B00020F0030008600846006840F00200086072
:1003C00053484068524948600846406848600846BB
:1003D000406840F4806048600846406820F47C1023
:1003E00048600846406840F4E810486008460068E5
:1003F00040F08070086000BF4548006800F0007061
:100400000028F9D04248406820F003004049486085
:100410000846406840F00200486000BF3C48406821
:1004200000F00C000828F9D10CBD10B5FFF792FFC1
:1004300010BD10B53648006840F00100344908602E
:100440000846406834490840314948600846006819
:10045000324908402E4908600846006820F4802090
:1004600008600846406820F4FE0048604FF41F0012
:100470008860FFF7DAFF4FF000602949086010BD7F
:1004800010B5002100200022214B5B6803F00C0115
:1004900021B1042906D0082928D107E0214B224C9C
:1004A000236027E01F4B204C236023E0184B5B6840
:1004B00003F47010164B5B6803F48032022303EBE5
:1004C000904022B9194B4343174C23600DE0104B69
:1004D0005B6803F4003323B1144B4343124C236095
:1004E00003E0104B4343104C236003E00D4B0E4CD4
:1004F000236000BF00BF064B5B68C3F303130C4CC3
:10050000E15C094B1B68CB40074C236010BD000029
:1005100000100240002002400000FFF8FFFFF6FE3E
:1005200008ED00E000127A000000002000093D0004
:100530000400002008B50121082000F08BFF0121F4
:10054000880500F094FF4FF44060ADF800000320F0
:100550008DF802001C208DF803006946F34800F076
:10056000BDFC0320ADF8000010208DF803006946A3
:10057000EE4800F0B3FC0321EC4800F05CFD08BD40
:100580001FB50020ADF804004BF6FF70ADF8060073
:10059000A020ADF808004FF48060ADF80A0000011B
:1005A000ADF80C00E24800906946E24801F0CFFA4D
:1005B0000121E04801F049FB0121DE4801F081FB07
:1005C0001FBD10B5FFF7B6FFFFF7DAFF10BD08B586
:1005D0000020009000BF0121D74801F05AFB1421F0
:1005E000D54801F0B5FB0090D44801780022D248EC
:1005F00001F0A5FB1421D04801F0AAFB00F0020095
:100600000028E8D0CE49CC4801F063FC0121CA485B
:1006100001F04BFB08BD70B504460E46154600BF01
:100620004FF40031C44801F037FC0028F8D1012113
:10063000C14801F02EFB00BFC249BF4801F00AFCCF
:100640000028F9D0BD4801780022BB4801F077FBB3
:1006500000BFBD49B84801F0FDFB0028F9D0314684
:10066000B54801F066FB00BFB749891CB24801F0EC
:10067000F1FB0028F8D00CE02178AF4801F059FBDD
:10068000641C00BFB049891CAB4801F0E3FB0028A3
:10069000F8D02800A5F10101CDB2EDD10121A64885
:1006A00001F003FB70BD2DE9F04707460D461446E7
:1006B0004FF00008C146C24600262846E91705EB60
:1006C0005171C910A5EBC10101F0FF0ACAF1080080
:1006D000C6B22046E11704EB5171C1F3C708E11718
:1006E00004EB5171C910A4EBC10101F0FF09BAF18B
:1006F000000F28D1B8F1000F07D14A4629463846E5
:10070000FFF789FFFFF763FF60E00AE00822294650
:100710003846FFF780FFFFF75AFF05F10800C5B222
:1007200008375FEA0800A8F1010101F0FF08EDD1E8
:10073000B9F1000F4AD04A4629463846FFF76BFF09
:10074000FFF745FF42E0B8F1000F07D14A462946BE
:100750003846FFF760FFFFF73AFF37E0A01B84B28F
:100760002046E11704EB5171C1F3C708E11704EB10
:100770005171C910A4EBC10101F0FF094EB132461D
:1007800029463846FFF747FFFFF721FFA819C5B2F2
:1007900037440AE0082229463846FFF73CFFFFF7B6
:1007A00016FF05F10800C5B208375FEA0800A8F196
:1007B000010101F0FF08EDD1B9F1000F06D04A4662
:1007C00029463846FFF727FFFFF701FFBDE8F0870E
:1007D00070B504460D460121574801F05AFA00BF92
:1007E0005849554801F036FB0028F9D053480178A4
:1007F0000022514801F0A3FA00BF53494E4801F0CE
:1008000029FB0028F9D029464B4801F092FA00BF95
:100810004D49891C484801F01DFB0028F8D021787B
:10082000454801F086FA00BF4749891C424801F05B
:1008300011FB0028F8D001213F4801F036FA70BDC5
:1008400008B500BF4FF400313A4801F025FB0028FD
:10085000F8D10121374801F034FA0121354801F07F
:1008600018FA00BF3749334801F0F4FA0028F9D0EC
:10087000002280212F4801F062FA00BF32492D4842
:1008800001F0E8FA0028F9D0E3212A4801F051FAF2
:1008900000BF2D49891C274801F0DCFA0028F8D058
:1008A0000121244801F0F5F900BF2649214801F053
:1008B000D1FA0028F9D0012281211E4801F03FFA27
:1008C00000BF2049491C1B4801F0C4FA0028F8D099
:1008D00000BF1C493F31174801F0BCFA0028F8D08E
:1008E000144801F028FA8DF800000021114801F0A9
:1008F000E8F901210F4801F0D8F900BF11493F3153
:100900000C4801F0A7FA0028F8D00A4801F013FAC1
:100910008DF801000121074801F0D3F99DF801008D
:100920009DF8001040EA012008BD0000000C0140C5
:10093000801A0600005800400054004014000020B7
:1009400000040010010003008200070002464FF47B
:10095000A57002FB00F1C81701EB1050C0F30F3077
:10096000704710B50022002014E0002107E0554B2D
:1009700003EB810333F810301A444B1CD9B23229EF
:10098000F5DB322392FBF3F34F4C24F810300022B6
:10099000431CD8B20228E8DB10BD00B591B001219C
:1009A000084600F04AFD494801F0E2FC484806903C
:1009B00044480790002008906420099000200A9085
:1009C00080200B9040000C9080000D9020200E9015
:1009D00000020F900020109006A93C4801F06AFD2B
:1009E00001213A4801F091FD0121480200F032FD59
:1009F0004FF4004000F092FC8220ADF8000000208F
:100A00008DF803006946334800F068FA0920ADF814
:100A1000000010208DF8030003208DF802006946C5
:100A20002C4800F05BFA01202B4908602B49C1F8E3
:100A30008C0127484C3801F073FA00200190012006
:100A40008DF808008DF809004FF460200390002015
:100A5000049002208DF8140001A91D484C3801F0C3
:100A600086FA01211A484C3801F0B8FA01211848D9
:100A70004C3801F0A8FA07230122114614484C38DB
:100A800001F00DFB07230222194611484C3801F0F2
:100A900006FB0F484C3801F0B8FA00BF0C484C3840
:100AA00001F0B8FA0028F9D109484C3801F0BCFA35
:100AB00000BF07484C3801F0BCFA0028F9D111B04A
:100AC00000BD000060010020160000200800024068
:100AD0004C240140000801408001214200002142D5
:100AE00008B50121042000F0B5FC4FF44070ADF8CA
:100AF000000003208DF8020010208DF803006946E5
:100B0000294800F0EBF94FF44071274800F093FAC0
:100B100008BD70B50446002024490860052000F097
:100B200086F801202249C1F8A001112000F07FF8C9
:100B300000201E49091D0860052000F078F80025F6
:100B400023E001201949091D086004F0010058B193
:100B50004FF4167000F047F800201449091D086092
:100B6000C82000F040F80AE0C82000F03CF800205F
:100B70000E49091D08604FF4167000F034F8641037
:100B800001200A49091D08606D1C082DD9DB70BDC4
:100B900010B5E720FFF7BDFF10BD10B5FFF7A0FFB0
:100BA000FFF7F6FF10BD000000080140A001214240
:100BB0000000214210B56FF0040000F002FF2E4843
:100BC00000682E49B0FBF1F02D4908700846007806
:100BD00000EB4001C1EBC0104FF6FF7101EAC0000D
:100BE0002849088010BD0146254A12784A434FF033
:100BF000E0235A6100229A611A46126942F001020A
:100C00001A6100BF4FF0E022106900F001021AB132
:100C100000F48032002AF5D04FF0E022126922F071
:100C200001024FF0E0231A6100229A6170470146E9
:100C3000144A12884A434FF0E0235A6100229A6115
:100C40001A46126942F001021A6100BF4FF0E02219
:100C5000106900F001021AB100F48032002AF5D0C8
:100C60004FF0E022126922F001024FF0E0231A61F6
:100C700000229A61704700000000002000127A00F4
:100C80001A0000201C00002010B54FF4A06000F0F6
:100C900049FE10BD014600BF704700BF4B4A128895
:100CA00002F04002002AF9D0C2B2484B1B1D1A8044
:100CB000704710B586B00446012144F2040000F0EC
:100CC000C9FB424800F02AFC4FF40070ADF8140054
:100CD00003208DF8160018208DF8170005A93C4850
:100CE00000F0FCF84FF48060ADF8140004208DF89B
:100CF000170005A9364800F0F1F825208DF800000E
:100D000003208DF801008DF8020001208DF803000A
:100D1000684600F00CFE01940020ADF80800ADF824
:100D20000A00ADF80C00ADF810000C20ADF80E0074
:100D300001A9264800F035FC012240F22551234844
:100D400000F0C7FC0121214800F0B7FC06B010BD3F
:100D500010B540F225511D4800F0A0FD10B31B480E
:100D600000F01CFDC4B21B48008800F40040C8B964
:100D70001848008800F4804060B10A2C03D000209D
:100D80001449088020E01348008840F400401149CD
:100D9000088019E00D2C06D10E48008840F48040F0
:100DA0000C49088010E00B480088C0F30D000A4988
:100DB0000C5408480088401C0649088008460088F2
:100DC000C72801DD0020088010BD00000038014068
:100DD0000008014024000020280200200948804724
:100DE00009480047FEE7FEE7FEE7FEE7FEE7FEE70D
:100DF000FEE7FEE7FEE7FEE704480549054A064B25
:100E000070470000330400083101000890030020FF
:100E100090090020900500209005002010B50446A0
:100E2000CC48844208D10121042000F02DFB002190
:100E3000042000F029FB46E0C748844208D1012184
:100E4000082000F021FB0021082000F01DFB3AE003
:100E5000C248844208D10121102000F015FB002176
:100E6000102000F011FB2EE0BD48844208D1012182
:100E7000202000F009FB0021202000F005FB22E0EB
:100E8000B848844208D10121402000F0FDFA002139
:100E9000402000F0F9FA16E0B348844208D101215D
:100EA000802000F0F1FA0021802000F0EDFA0AE045
:100EB000AE48844207D10121801500F0E5FA0021F7
:100EC000A01500F0E1FA10BD10B50121084600F0B0
:100ED000DBFA0021012000F0D7FA10BD2DE9F04126
:100EE000024600250026002000230024002791F858
:100EF00003C00CF00F0591F803C00CF0100CBCF10E
:100F0000000F03D091F802C04CEA050591F800C02B
:100F1000BCF1000F31D0146800202BE04FF0010C21
:100F20000CFA00F3B1F800C00CEA03069E4220D18F
:100F300083004FF00F0C0CFA03F7BC4305FA03FCD7
:100F40004CEA040491F803C0BCF1280F06D14FF01D
:100F5000010C0CFA00FCC2F814C00AE091F803C0BE
:100F6000BCF1480F05D14FF0010C0CFA00FCC2F89F
:100F700010C0401C0828D1D31460B1F800C0BCF1E7
:100F8000FF0F34DD546800202EE000F1080C4FF014
:100F9000010808FA0CF3B1F800C00CEA03069E42FF
:100FA00021D183004FF00F0C0CFA03F7BC4305FA74
:100FB00003FC4CEA040491F803C0BCF1280F05D1EE
:100FC00000F1080C08FA0CF8C2F8148091F803C07C
:100FD000BCF1480F07D100F1080C4FF0010808FAE6
:100FE0000CF8C2F81080401C0828CED35460BDE82D
:100FF000F0814FF6FF710180022181700421C170E0
:1010000070470246002093680B400BB1012000E0BE
:10101000002070470146886880B270470246002071
:10102000D3680B400BB1012000E00020704701465F
:10103000C86880B2704701617047416170470AB16A
:10104000016100E041617047C16070474FF4803238
:101050000A438261816182618269826970470246C6
:101060000020434B18684FF68073184040EA021086
:1010700008433F4B186070473E49C8617047F0B560
:101080000A46002300240021002500F00046B6F1A6
:10109000004F02D1364EF16901E0354E7168C0F360
:1010A000034583B200F44016B6F5401F08D121F085
:1010B00070612F4E766826F070662D4F7E6012E0CC
:1010C00000F48016B6F5801F06D1032606FA05F453
:1010D000A14341F0706106E0460D360103FA06F6C1
:1010E000B14341F0706122B1460D360103FA06F6B4
:1010F000314300F00046B6F1004F02D11C4EF161C1
:1011000001E01B4E7160F0BD30B500228B071C0F53
:101110000F2303FA04F2164B08338C1053F82430D3
:101120009343134C08348D1044F8253023468C101B
:1011300053F824308C07240F00FA04F423430C4C9A
:1011400008348D1044F8253030BD0A49DC31086080
:101150007047000000080140000C014000100140F1
:101160000014014000180140001C01400020014013
:101170000000014000002042DF48006840F001000C
:10118000DD49086008464068DC490840DA494860A3
:1011900008460068DA490840D749086008460068F0
:1011A00020F4802008600846406820F4FE00486073
:1011B0004FF41F0088607047CF49096821F48031DF
:1011C000CD4A11601146096821F480211160B0F503
:1011D000803F03D0B0F5802F0ED106E0C6490968E4
:1011E00041F48031C44A116007E0C349096841F401
:1011F000A021C14A116000E000BF00BF704710B5D8
:1012000001460022002300204A11012A02D1BA4CD3
:10121000236806E0022A02D1B74C236A01E0B64CEB
:10122000636A01F01F02012494401C400CB10120AC
:1012300000E0002010BD38B50020009000240025FB
:1012400000BF3120FFF7DBFF05460098401C0090EF
:101250000098B0F5A06F01D0002DF2D03120FFF73B
:10126000CEFF08B1012400E00024204638BD01462D
:101270000020A14A106820F0F80040EAC100106088
:101280007047A04908607047024600209A4B586892
:1012900020F47C1042EA01031843974B58607047D2
:1012A00098490866704701460020934A506820F02C
:1012B00003000843506070478F48406800F00C00FE
:1012C0007047014600208C4A506820F0F000084327
:1012D0005060704701460020874A506820F4E06063
:1012E00008435060704701460020834A506820F44C
:1012F000605040EAC1005060704729B17E4A527A7E
:1013000002437D4B5A7204E07B4A527A82437A4B05
:101310005A7270477B49D8310860704701460020F7
:10132000754A506820F440400843506070470021DF
:10133000714A20321170704A82F82010012802D0C0
:1013400004280AD104E001216B4A2032117005E023
:101350000521694A2032117000E000BF00BF7047CC
:101360006949086070476449096A0143624A116229
:101370007047654944390860704730B50021002244
:10138000002400235C4D6D6805F00C0121B1042997
:1013900005D0082923D105E05C4D056022E05B4DB6
:1013A00005601FE0544D6D6805F47012524D6D6874
:1013B00005F48034022505EB92421CB9544D554387
:1013C00005600BE04C4D6D6805F400351DB1504DC6
:1013D0005543056002E04D4D5543056002E04B4D1D
:1013E000056000BF00BF444D6D6805F0F0010909BC
:1013F000484D6B5C0568DD4045603F4D6D6805F408
:10140000E061090A434D6B5C4568DD4085603A4DFB
:101410006D6805F46051C90A3E4D6B5C4568DD405E
:10142000C560354D6D6805F44041890B3A4D6B5CE4
:10143000C568B5FBF3F5056130BD29B12E4A526987
:1014400002432D4B5A6104E02B4A526982432A4BD6
:101450005A61704729B1284A92690243264B9A6122
:1014600004E0254A92698243234B9A61704729B16F
:10147000214AD2690243204BDA6104E01E4AD26954
:1014800082431D4BDA61704729B11B4AD26802437F
:10149000194BDA6004E0184AD2688243164BDA60CE
:1014A000704729B1144A12690243134B1A6104E0D0
:1014B000114A12698243104B1A6170471249403930
:1014C000086070470F49C86470470B49C87170477E
:1014D0000948406A40F080700749486270470146F9
:1014E0000020054A92680A400AB1012000E000206D
:1014F0007047014988727047001002400000FFF8F1
:10150000FFFFF6FE000042428004424200127A00D1
:1015100000093D00260000203600002010B50446DA
:10152000FB48844209D101218803FFF7ADFF002168
:101530004FF48040FFF7A8FF32E0F648844209D11B
:1015400001214804FFF7ADFF00214FF40030FFF701
:10155000A8FF25E0F048844209D101218804FFF763
:10156000A0FF00214FF48020FFF79BFF18E0EB481D
:10157000844209D10121C804FFF793FF00214FF4F1
:101580000020FFF78EFF0BE0E548844208D10121DF
:101590000805FFF786FF00214FF48010FFF781FF59
:1015A00010BD2DE9F04786B005460E460024A24640
:1015B00000BFA1460027B08900B100BF2F462C8A8A
:1015C0004CF6FF700440F08804432C82AC894EF640
:1015D000F3100440B08831890843718908430443FB
:1015E000AC81AC8A4FF6FF400440B0890443AC8222
:1015F00001A8FFF7C2FEC648874202D1DDF810A05D
:1016000001E0DDF80CA0A88900F4004040B10AEB2D
:10161000CA0000EB0A1031684900B0FBF1F807E09E
:101620000AEBCA0000EB0A1031688900B0FBF1F840
:101630006420B8FBF0F004012009642101FB10894B
:10164000A88900F4004040B1322000EBC900B0FB93
:10165000F1F000F00700044308E0322000EB09102D
:101660006421B0FBF1F000F00F0004432C8106B0C0
:10167000BDE8F0874FF41651016000218180C180E0
:1016800001810C21418100218181704710B5024602
:101690000020108A4FF2FF0318400B884C88234328
:1016A0008C882343CC8823431843108210BD00212B
:1016B000018041808180C180704721B1828942F4DC
:1016C0000052828104E082894DF6FF731A408281C4
:1016D0007047F0B50346002400260025002040F6A0
:1016E0006A17B94200D100BF1846C1F3421401F095
:1016F0001F06012707FA06F5012C01D10C3004E082
:10170000022C01D1103000E014301AB107682F43C9
:10171000076002E00768AF430760F0BD1AB1838A33
:101720000B43838202E0838A8B4383827047028A61
:101730004FF6F0731A400282028A0A43028270470F
:1017400082894FF2FF731A40828182890A43828123
:10175000704721B1828942F00202828104E08289CD
:101760004FF6FD731A4082817047028A4FF6DF738D
:101770001A400282028A0A430282704721B1028A19
:1017800042F48042028204E0028A4BF6FF731A4060
:1017900002827047C1F30802828070470146888840
:1017A000C0F308007047818941F0010181817047D1
:1017B000028BD2B20283028B42EA0122028370477B
:1017C000028B02F47F420283028B0A43028370473A
:1017D00021B1828A42F02002828204E0828A4FF69E
:1017E000DF731A408282704721B1828A42F0100270
:1017F000828204E0828A4FF6EF731A408282704739
:1018000021B1828A42F00802828204E0828A4FF685
:10181000F7731A408282704721B1828942F40042F4
:10182000828103E08289C2F30E028281704721B176
:10183000828A42F40062828204E0828A4FF2FF735D
:101840001A4082827047828A4FF6FB731A40828266
:10185000828A0A438282704721B1828A42F0020260
:10186000828204E0828A4FF6FD731A4082827047BA
:1018700002460020B1F5007F00D100BF13880B4065
:101880000BB1012000E00020704701F40072B2F5B6
:10189000007F00D100BFCA430280704770B5024686
:1018A000002400230025002040F66A16B14200D132
:1018B00000BFC1F3421501F01F03012606FA03F32E
:1018C000012D02D19689334006E0022D02D1168AFD
:1018D000334001E0968A33400C12012606FA04F4E4
:1018E0001688344013B10CB1012000E0002070BD17
:1018F00010B50022002340F66A14A14200D100BFB7
:101900000A1201249440A3B2DC43048010BD0000FD
:10191000003801400044004000480040004C0040B6
:101920000050004031490143314A1160704770B5A1
:10193000002100230F22C47804B32D4C246804F442
:10194000E064C4F5E064210AC1F10403CA404478AC
:1019500004FA03F18478144021430901254C0678E8
:10196000A155047804F01F050124AC4005786D11E1
:10197000AD0005F1E025C5F8004109E0047804F068
:101980001F050124AC401C4D0678761145F8264011
:1019900070BD1A4A0A400243154B1B1F1A6070475C
:1019A00039B1134A121D12680243114B1B1D1A60F4
:1019B00006E00F4A121D126882430D4B1B1D1A6070
:1019C0007047042808D14FF0E021096941F0040173
:1019D0004FF0E022116107E04FF0E021096921F0AA
:1019E00004014FF0E0221161704700000000FA0589
:1019F0000CED00E000E400E080E100E080FFFF1F6C
:101A0000002044490860091D0860091D0860091D7F
:101A1000086041483F4914310860704700213D4942
:101A20008279002A3AD00A46126803689A430B4624
:101A30001A600A1D126803689A430B1D1A60027926
:101A400011440A6803681A430A60324A083212686D
:101A500003689A432F4B08331A601A1D12680368F3
:101A60009A432C4B0C331A604279102A0ED11A1F5C
:101A7000126803681A43274B08331A601A1D12684C
:101A800003681A43234B0C331A600DE02149427955
:101A900011440A6803681A430A6005E00279114498
:101AA0000A6803689A430A60704700210160017167
:101AB0000C2141710021817170471649103109686C
:101AC0000143144A10321160704701460020114A48
:101AD000143212680A400AB1012000E00020704769
:101AE0000C49143108607047014600200022094B60
:101AF0001B6803EA0102074B14331B680B4013B148
:101B00000AB1012000E0002070470249143108604A
:101B10007047000000040140FFFF0F0010B50446AD
:101B2000F748844209D101214805FFF7BAFC00219A
:101B30004FF40010FFF7B5FC08E001218805FFF71E
:101B4000B0FC00214FF48000FFF7ABFC10BD2DE985
:101B5000F04385B004460D460026B1460427DFF861
:101B6000A483A6884FF6C07006406846FFF705FCC0
:101B7000DDF80880E448B8FBF0F01FFA80F946EA87
:101B80000906A68020884FF6FE71084020800026B6
:101B9000DE49286888420CD828684000B8FBF0F07D
:101BA00087B2042F00DA04273E4309F101002084A4
:101BB00027E0E8884BF6FF71884206D1286800EBE1
:101BC0004000B8FBF0F087B209E0286800EBC001E4
:101BD00001EB0010B8FBF0F087B247F48047C7F381
:101BE0000B0008B947F0010747F4004006434FF4E3
:101BF000967009FB00F04FF47A7190FBF1F0401CF5
:101C00002084A683208840F00100208026884FF69B
:101C1000F5300640A8886989084306432680A889CC
:101C200029890843208105B0BDE8F08341F288315D
:101C30000160002181804BF6FF71C180002101818C
:101C400041814FF480418181704721B1028842F087
:101C50000102028004E002884FF6FE731A400280FF
:101C6000704721B1828842F40062828004E0828859
:101C70004FF2FF731A408280704721B1828842F48C
:101C80008052828004E082884EF6FF731A40828080
:101C9000704721B1028842F48072028004E0028819
:101CA0004FF6FF631A400280704721B1028842F468
:101CB0000072028004E002884FF6FF531A4002804F
:101CC000704721B1028842F48062028004E00288F9
:101CD0004FF6FF331A40028070470A46002181897F
:101CE0004FF60173194002F0FE03194381817047DA
:101CF00021B1828942F00102828104E082894FF69B
:101D0000FE731A408281704721B1028842F040027E
:101D1000028004E002884FF6BF731A4002807047C9
:101D20001AB183880B43838002E083888B438380CE
:101D30007047018270470146088AC0B2704712B1ED
:101D400041F0010102E04FF6FE7319400182704735
:101D500008B50246002000900092009808440090C8
:101D60000098008808BD21B1028842F40042028038
:101D700003E00288C2F30E0202807047B1F5006FE3
:101D800004D1028842F40062028004E002884FF22B
:101D9000FF731A4002807047B1F5005F04D10288DA
:101DA00042F40052028004E002884DF6FF731A40AC
:101DB0000280704721B1028842F48052028004E020
:101DC00002884EF6FF731A4002807047B1F5006F2B
:101DD00004D1028842F40062028004E002884FF2DB
:101DE000FF731A400280704721B1028842F020023E
:101DF000028004E002884FF6DF731A4002807047C9
:101E00000146088B0012704721B1028842F010028F
:101E1000028004E002884FF6EF731A400280704798
:101E200021B9028842F08002028004E002884FF665
:101E30007F731A4002807047B1F5804F05D0828BC6
:101E40004BF6FF731A40828303E0828B42F4804298
:101E50008283704770B502460024002500230020CD
:101E6000958A138B1B0445EA030626F07F4404EA97
:101E700001068E4201D1012000E0002070BD10B5A6
:101E800001460020002300228B8A0A8B120443EAB9
:101E9000020424F07F4010BD0CB502460020002350
:101EA0000193009300920B0F019321F07F41019B5E
:101EB0001BB1009B1433009303E0090C009B183303
:101EC0000093009B1B680B400BB1012000E0002039
:101ED0000CBD002221F07F42D3438382704730B58E
:101EE000024600200023948801F0E06504EA1543CF
:101EF00021F07F41948A0C4054B14BB1012008E09D
:101F00000054004000127A0040420F00A0860100F9
:101F1000002030BD002221F07F42D34383827047EE
:101F200010B50446FA48844208D101214015FFF754
:101F3000ABFA00216015FFF7A7FA17E0F5488442D5
:101F400008D101210015FFF79FFA00212015FFF7A6
:101F50009BFA0BE0F048844208D10121C803FFF747
:101F600093FA00214FF40040FFF78EFA10BD30B510
:101F70000246002000235068E84C20400D790C6890
:101F800044EA0524204350609068E54C2040D1E9A4
:101F900002542C434D7944EA450420439060D06AB2
:101FA00020F470000C7C641EE4B2234340EA03502A
:101FB000D06230BD00210160017141718160C1605A
:101FC00001210174704721B1826842F001028260F0
:101FD00003E0826822F001028260704721B18268CA
:101FE00042F48072826003E0826822F48072826030
:101FF000704710B50023CBB21AB144681C4344604B
:1020000002E044689C43446010BD816841F00801CF
:1020100081607047014600208A6802F008020AB118
:10202000012000E000207047816841F004018160D8
:102030007047014600208A6802F004020AB10120BC
:1020400000E00020704721B1826842F4A002826063
:1020500003E0826822F4A0028260704701460020FB
:102060008A6802F480020AB1012000E00020704773
:1020700010B50A4600210023416821F46041531E37
:1020800041EA4331416010BD21B1426842F400622F
:10209000426003E0426822F4006242607047F0B59B
:1020A00004460D4600200021092D11DDE068A5F150
:1020B0000A0606EB4607072606FA07F18843A5F14C
:1020C0000A0606EB460603FA06F10843E0600CE058
:1020D000206905EB4507072606FA07F1884305EB5B
:1020E000450603FA06F108432061072A0FDA606B00
:1020F000561E06EB86071F2606FA07F18843561E72
:1021000006EB860605FA06F10843606322E00D2A15
:102110000FDA206BD61F06EB86071F2606FA07F19B
:102120008843D61F06EB860605FA06F108432063AE
:1021300010E0E06AA2F10D0606EB86071F2606FAFC
:1021400007F18843A2F10D0606EB860605FA06F1B3
:102150000843E062F0BD21B1826842F480128260DF
:1021600003E0826822F48012826070470146C86CE6
:1021700080B2704766484C300068704721B14268B1
:1021800042F48062426003E0426822F4806242606E
:10219000704721B1426842F48052426003E04268D5
:1021A00022F48052426070470A460021816821F47F
:1021B000E04111438160704721B1826842F40042DE
:1021C000826003E0826822F400428260704721B19D
:1021D000826842F40212826003E0826822F40212F2
:1021E00082607047014600208A6802F400120AB13A
:1021F000012000E000207047F0B50446154600209D
:1022000000220026092911DDE068A1F10A0707EB89
:10221000470C072707FA0CF29043A1F10A0707EBD6
:10222000470703FA07F21043E0600CE0206901EB76
:10223000410C072707FA0CF2904301EB410703FA20
:1022400007F210432061A06BC0F30156EF1C06F1AA
:10225000010CA7EB0C0707EB870C1F2707FA0CF202
:102260009043EF1C06F1010CA7EB0C0707EB870767
:1022700001FA07F21043A063F0BD10B50A46002131
:102280000023816B21F44011531E41EA0351816305
:1022900010BD08B5002300930090009B0B440093F1
:1022A000009B1A6008BD08B502460020009000920D
:1022B00001F12800009B184400900098006880B24B
:1022C00008BD0A4600214168164B19401143416080
:1022D00070474162826270470A460021416821F0DE
:1022E0001F0111434160704740B109490831096835
:1022F00041F40001064A0832116007E00449083140
:10230000096821F40001024A083211607047000098
:102310000024014000280140003C0140FFFEF0FF86
:10232000FDF7F1FFFFFD3FFF0246002013680B4061
:102330000BB1012000E000207047CA4302607047E3
:1023400070B502460020002300240B125568CEB25F
:1023500005EA060415681D4015B10CB1012000E026
:10236000002070BD00220A12D343036070470000B2
:1023700001684FF6FE72114001600021016041606A
:102380008160C1608D49884208D18C49083949680B
:1023900041F00F01894A083A51608AE087491431B7
:1023A000884208D185490839496841F0F001834ADB
:1023B000083A51607DE081492831884208D17F493F
:1023C0000839496841F470617C4A083A516070E00C
:1023D0007A493C31884208D178490839496841F442
:1023E0007041764A083A516063E07449503188423E
:1023F00008D172490839496841F470216F4A083A96
:10240000516056E06D496431884208D16B49083902
:10241000496841F47001694A083A516049E06749E6
:102420007831884208D165490839496841F07061BE
:10243000624A083A51603CE06149884206D1011F76
:10244000096841F00F01021F116032E05C4914314C
:10245000884208D15A49091F096841F0F001584AD9
:10246000121F116025E056492831884208D154498D
:10247000091F096841F47061514A121F116018E088
:102480004F493C31884208D14D49091F096841F440
:1024900070414B4A121F11600BE04949503188428C
:1024A00007D14749091F096841F47021444A121FA6
:1024B0001160704710B50022026847F6F0739A4326
:1024C0000C6A8B6823430C6923434C6923438C6952
:1024D0002343CC6923434C6A23438C6A23431A4326
:1024E0000260CB6843600B6883604B68C36010BDBB
:1024F0000021016041608160C160016141618161D1
:10250000C161016241628162704721B1026842F09B
:102510000102026004E002684FF6FE731A40026096
:1025200070471AB103680B43036002E003688B43F2
:1025300003607047416070470146486880B2704749
:1025400001460020002201F080531BB11C4B083BC8
:102550001A6802E0194B083B1A6802EA01030BB142
:10256000012000E00020704700F0805119B11449AB
:10257000091F086002E011490839486070470146A8
:102580000020002201F080531BB10D4B083B1A685C
:1025900002E00A4B083B1A6802EA01030BB1012072
:1025A00000E00020704700F0805119B10449091F74
:1025B000086002E00149083948607047080002409D
:1025C0000804024010B504462CB90120F6490968F8
:1025D0000882002010BDF549096808688047F24864
:1025E00000680A30F6E710B5EF480068C078F04997
:1025F0004978884213DCEC480068807878B9EA486A
:102600000068808858B9E8480068C078E6490968D9
:102610008872E649096848688047002010BD02209A
:10262000FCE710B504462CB90120DF49096808828F
:10263000002010BDDD49096888688047DA480068D5
:102640000C30F6E710B5D84B1B68D978D64B1B6811
:102650005879D84B1B689A6990470446D24800685D
:10266000807AE8B13CB9D0480068007918B9CE4802
:102670000068807808B1022010BD8CB9CB49096888
:10268000C8688047C84800684079C7490968C87267
:10269000C5480068C078C449096808730020EBE7A2
:1026A0000220E9E710B504462CB90220BE490968AA
:1026B0000882002010BD0020BF490880BA48006889
:1026C000007800F07F0018BBB7490968487A00F02D
:1026D000200131B1B849097841F00201B64A1170C0
:1026E00005E0B549097801F0FD01B34A117000F029
:1026F000400131B1B049097841F00101AE4A117091
:1027000005E0AD49097801F0FE01AB4A11703AE0ED
:10271000A5480068007800F07F00012801D1A64894
:10272000C8E7A1480068007800F07F00022828D19F
:102730009D4A1268517901F00F0001F080027AB1D0
:102740009E4B03EB8002D2F8002C02F03002102ADC
:1027500016D1994A127842F00102974B1A700FE095
:10276000964B03EB8002D2F8002C02F44052B2F5F3
:10277000805F05D1904A127842F001028E4B1A70A8
:1027800001E0002096E789490968086980478A487E
:1027900090E72DE9F04784480068007800F07F0852
:1027A000B8F1000F0AD180480068407A00F0DF00DD
:1027B0007D49096848720020BDE8F087B8F1020F32
:1027C0007ED179480068408818B977480068007958
:1027D00008B10220F0E7DFF8D89173480068477924
:1027E00027F080052C4670480068407900F0800092
:1027F00038B1724901EB8400D0F8000C00F03006CB
:1028000006E06E4901EB8400D0F8000C00F440565D
:1028100099F80000A84204D91EB163480068807A84
:1028200008B90220C8E707F0800080B1634901EBD6
:102830008400D0F8000C00F0300010284BD1E0B23A
:1028400001F01DF8E0B2302100F09FFE43E05B494B
:1028500001EB8400D0F8000C00F44050B0F5805F2C
:1028600039D1E4B9564A92F82C10E0B201F091F84F
:10287000524A02EB8401D1F8001C4BF68F7201EA38
:10288000020080F4805080F4005040F4004141F098
:1028900080014A4B03EB8402C2F8001C1BE0E0B24B
:1028A00000F0D5FF454A02EB8401D1F8001C4BF63D
:1028B0008F7201EA020080F4805080F4005000E042
:1028C0000FE040F4004141F080013C4B03EB8402F7
:1028D000C2F8001C00BF35490968486980470020DC
:1028E0006AE700BF022067E72DE9F0412E48006843
:1028F000467926F080073C462B480068407900F076
:10290000800038B12D4901EB8400D0F8000C00F0B4
:10291000300506E0294901EB8400D0F8000C00F4F2
:10292000405523480078A04208D91F4800684088D5
:1029300020B91DB11C480068807A10B90220BDE89A
:10294000F08106F08000A0B11C4A02EB8401D1F8AE
:10295000001C48F6BF7201EA020080F0100040F44B
:10296000004141F08001154B03EB8402C2F8001CCA
:1029700014E0124A02EB8401D1F8001C4BF68F726E
:1029800001EA020080F4805040F4004141F08001EF
:102990000A4B03EB8402C2F8001C00BF034909681C
:1029A000886980470020CAE74400002050000020CA
:1029B000BC000020480000203A00002000500040E9
:1029C000C000002010B5F7480068407A40F02000B1
:1029D000F44909684872F4490968C86980470020C9
:1029E00010BD10B50246EF480068438A32B98888A6
:1029F000C01AEC4C24682082002010BD08681844DE
:102A0000FBE72DE9F041E748006800F11004268853
:102A1000A068C0B1BEB1A588B54200D93546A8B2FC
:102A2000A168884707462088401B2080608828448A
:102A30006080002000F07FFF8046AAB24146384601
:102A400000F03EFD00BF208850B14FF44050D74900
:102A500008800021084600F07AFF3020D449088021
:102A60002088A188884204DB0320CE4909680872C7
:102A700018E02088002804DD0520CA49096808728A
:102A800010E0208870B90620C64909680872002144
:102A9000C848006880B2801CC74A42F81010302035
:102AA000C3490880BDE8F0812DE9F047BD480068C2
:102AB00000F110052E88BB480068077AD6B9042FAC
:102AC00018D1BE48007801280FD10021B94800680C
:102AD00080B2801CB84A42F810103020B4490880F7
:102AE00000BF0020B549087003E007271020B04957
:102AF000088027E0AC88A64201D8042000E002202C
:102B00000746B44200D93446A0B2A9688847804637
:102B1000002000F005FF8146A2B24946404600F081
:102B2000B5FCA1B2002000F012FF2888001B28800D
:102B300068882044688030209D49088000029B49B5
:102B4000088000BF974909680F72BDE8F08770B52B
:102B5000022694480068447892480068007800F0A3
:102B60007F00002844D1092C03D1FFF73CFD064625
:102B70005FE0052C14D18B480068C0787F280BDCFF
:102B800088480068807838B986480068808818B915
:102B900084480068807A08B1082565E0002648E08E
:102BA000032C0ED17F480068C078012807D17D48EA
:102BB0000068808818B9FFF705FF064639E002264D
:102BC00037E0012C35D177480068C07801280DD155
:102BD00074480068808848B972480068407A00F0FC
:102BE000200018B1FFF7D5FD064622E0022620E0BE
:102BF0006C480068007800F07F00012805D10B2C9C
:102C000017D1FFF71FFD064613E0664800680078FD
:102C100000F07F0002280BD1012C03D1FFF7B9FD92
:102C2000064606E0032C04D1FFF75EFE064600E0F0
:102C300002264EB1E0B2624A1268516988470646E0
:102C4000032E01D109250FE00EB108250CE0062561
:102C500000215848006880B2801C574A42F8101082
:102C600030205349088000BF4E4909680D7270BD7D
:102C70002DE9F84F4B48006845780027BA46062DE5
:102C80001BD148480068007800F07F00002813D16D
:102C9000444909688878012803D149490968CF69FE
:102CA0000AE0022803D1464909680F6A04E00328B4
:102CB00002D1434909684F6AADE0002D67D1394818
:102CC00000684088002862D136480068C088022821
:102CD0005DD1344800680079002858D13148006837
:102CE000007800F07F0030B92E480068808810B965
:102CF000AFF24F678FE02B480068007800F07F004C
:102D0000012811D12749096848792D4909688A693C
:102D10000021904700287ED122480068807A002850
:102D200079D0AFF27F6776E01E480068007800F047
:102D30007F0002286FD11B480068407900F00F0621
:102D400018480068407900F070091648006840791A
:102D500000F0800038B11B4901EB8600D0F8000C70
:102D600000F0300806E0174901EB8600D0F8000CAF
:102D700000F4405814480078B0424CD9B9F1000F23
:102D800049D1B8F1000F46D0AFF2E76743E0082D14
:102D90001CD104480068007800F07F00D8BBAFF277
:102DA000DB7738E044000020500000205400002071
:102DB00056000020505C0040006000403C000020B5
:102DC0004800002000500040BC0000200A2D22D105
:102DD000C5480068007800F07F0001281BD1C24878
:102DE0000068807AB8B1C0480068408898B9BE4889
:102DF0000068007978B9BC480068C08801280AD109
:102E0000B94909684879B94909688A690021904730
:102E100008B9AFF2F17757B1B3480068A0F812A033
:102E2000B148006887610020B84700240FE0AE4A2F
:102E300012685078AD4A1268116988470446032C1D
:102E400005D10920A84909680872BDE8F88FA6488D
:102E50000068008A4FF6FF71884204D10920A24918
:102E600009680872F1E7022C03D09F480068008AC5
:102E700020B908209C4909680872E6E79A4800686A
:102E8000007800F08000E0B397480068C0880090A8
:102E900095480068008A0099884204D992490098B0
:102EA0000968088223E090480068008A8E49096812
:102EB000C98888421BDA8C480068008A8B490968F7
:102EC00091F82C10884203DA0020894908700EE03E
:102ED00085480068008A8549096891F82C1090FBA4
:102EE000F1F201FB120010B90120814908707F48FE
:102EF000006890F82C107C4800688182FFF7D4FDB0
:102F000007E0FFE703207849096808720003794960
:102F1000088000BF99E710B5774890F82C10002082
:102F200000F037FD70480068007A082805D140029B
:102F3000704908801020714908806B480068007A49
:102F4000092801D1012010BD0020FCE738B501247B
:102F50006B48006880B2001D6A4931F8100080B2E9
:102F600001EB4000009060480068007A092832D0E8
:102F7000009800785C49096808700098401C00902F
:102F8000009800785849096848700098401C0090E3
:102F9000009800EB44000090009931F8020B00917A
:102FA00000F0A0FE504909684880009800EB4400FA
:102FB0000090009931F8020B009100F093FE4A490D
:102FC00009688880009800EB440000900098008811
:102FD00045490968C8800120434909680872424888
:102FE0000068C08810B9FFF7B2FD01E0FFF740FEAE
:102FF000FFF791FF38BD30B50146434B1A780020EA
:1030000014E00306414C04EB9353D3F8003C48F61C
:103010008F74234048F280042343C4B22343040640
:103020003A4D05EB9454C4F8003C401C9042E8D360
:1030300041F08003324C241F236030BD10B52A4874
:103040000068047A022C01D0042C05D1FFF72CFD76
:1030500025480068047A1CE0062C19D12248006833
:10306000407805280ED120480068007800F07F00E5
:1030700040B91D490968C878FFF7BDFF24490968B0
:10308000086A80471949096888688047082400E071
:103090000824154909680C72FFF73DFF10BD10B5F3
:1030A00011480068047A022C01D0042C01D10824B4
:1030B00012E0032C01D0052C05D1FFF7A2FC0A4831
:1030C0000068047A08E0072C05D108490968C86837
:1030D0008047082400E00824034909680C72FFF7C0
:1030E0001AFF10BD70470000440000204800002077
:1030F0003C00002054000020C000002056000020AA
:10310000505C004000600040BC00002000500040C7
:103110005000002010B508480849086002200968DE
:1031200008720748074908600748084908600549C8
:1031300009680868804710BDF002002044000020A4
:10314000C000002048000020F000002050000020B7
:1031500008B50020009022E1C448008800F00F006C
:10316000C34908700846007800287CD1C14800682F
:10317000C14908800846008800F03000BF49088037
:10318000BD48008800F44050BB490880B94909682F
:103190004BF6BF7201EA020080F4005080F020007C
:1031A00040F4004141F08001B24A1160AF4800880C
:1031B00000F0100090BB1046006848F60F71084000
:1031C00011460860FFF73AFFAA4909684BF6BF723B
:1031D00001EA0200A849098801F4805109B180F48C
:1031E0008050A549098801F4005109B180F40050CC
:1031F000A249098801F0100109B180F010009F492F
:10320000098801F0200109B180F0200081B241F469
:10321000004141F08001974A116008BDFFE79548E1
:10322000006880B20090BDF8000000F40060B0B308
:1032300090480068C0F30E0048F68F7108408D4931
:103240000860FFF783FE8B4909684BF6BF7201EAFD
:1032500002008949098801F4805109B180F4805045
:103260008549098800E056E001F4005109B180F475
:1032700000508249098801F0100109B180F0100066
:103280007E49098801F0200109B180F0200081B257
:1032900041F4004141F08001764A1160BDE7FFE74B
:1032A000BDF8000000F40040002878D071480068A4
:1032B000C0F30E0048F68F7108406E490860FFF7B2
:1032C000EEFE6C4909684BF6BF7201EA02006A49DA
:1032D000098801F4805109B180F480506649098859
:1032E00001F4005109B180F400506449098801F0EB
:1032F000100109B180F010006049098801F0200137
:1033000009B180F0200081B241F4004141F0800118
:10331000584A116081E756480078594901EB80000E
:10332000D0F8000C80B20090BDF8000000F400401E
:10333000C0B14F48007801EB8000D0F8000CC0F31A
:103340000E0048F68F710840494909784C4A02EB53
:103350008101C1F8000C46490978491E494A52F8D2
:1033600021008047BDF8000000F08000B8B140485F
:103370000078434901EB8000D0F8000C48F60F714B
:1033800008403B4909783E4A02EB8101C1F8000C34
:1033900037490978491E3C4A52F821008047354890
:1033A0004430006880B23149088000F400400028B1
:1033B0007FF4D2AE00BF30E710B500244AE047F6F4
:1033C000FF702C49443108602848008800F00F0045
:1033D0002749087008460078294901EB8000D0F899
:1033E000000C84B204F40040C8B12148007801EB1D
:1033F0008000D0F8000CC0F30E0048F68F71084032
:103400001B4909781E4A02EB8101C1F8000C1849DA
:103410000978491E1B4A52F8210080471AE004F03F
:103420008000B8B112480078154901EB8000D0F84F
:10343000000C48F60F7108400D490978104A02EB5C
:103440008101C1F8000C0A490978491E0E4A52F858
:103450002100804707484430006880B20349088053
:1034600000F400400028AAD110BD00007400002024
:1034700040000020005C0040540000205600002066
:10348000005000409C00002080000020F0B5144651
:1034900004F1010C4FEA6C07DFF848C00CEB410364
:1034A0003D460AE00678401C90F800C046EA0C222F
:1034B00023F8022B9B1C401C6D1E002DF2D1F0BD89
:1034C000F0B5561C7510074E06EB41042B4605E07F
:1034D00034F8047B20F8017B401C5B1E002BF7D1E5
:1034E000F0BD000000600040FA4908607047F948EC
:1034F000006880B27047F749091D08607047F548B9
:10350000001D006880B27047F2480830006880B241
:103510007047F0490C3108607047EE480C30006885
:1035200080B270474FF6F8710140EA4A10321160DC
:103530007047E8481030006880B27047E64B03EBF4
:103540008002C2F8001C70470146E34A02EB81008A
:10355000D0F8000C80B2704710B5DF4B03EB80024F
:10356000D2F8002C48F68F131A400A43DA4C04EBC9
:103570008003C3F8002C10BD0146D74A02EB81003E
:10358000D0F8000C00F4C060704730B5D24C04EBAA
:103590008003D3F8003C48F6BF7403EA040201F04C
:1035A00010030BB182F0100201F020030BB182F086
:1035B000200242F4004343F08003C74D05EB800432
:1035C000C4F8003C30BD30B5C34C04EB8003D3F8E5
:1035D000003C4BF68F7403EA040201F480530BB1F4
:1035E00082F4805201F400530BB182F4005242F491
:1035F000004343F08003B84D05EB8004C4F8003C61
:1036000030BD30B503460C461846FFF79DFF054612
:10361000012C07D125F48050AF4A02EB8301C1F899
:10362000000C08E0022C06D125F01000AA4A02EB9B
:103630008301C1F8000C30BD0146A74A02EB8100AE
:10364000D0F8000C00F0300070470146A24A02EBAF
:103650008100D0F8000C00F44050704710B59E4B2C
:1036600003EB8002D2F8002C48F6BF7302EA030194
:1036700081F0100181F0200141F4004242F080020B
:10368000954C04EB8003C3F8002C10BD10B5924B91
:1036900003EB8002D2F8002C4BF68F7302EA030191
:1036A00081F4805181F4005141F4004242F08002E3
:1036B000894C04EB8003C3F8002C10BD864A02EB52
:1036C0008001D1F8001C41F4807148F68F721140DE
:1036D00048F280021143804B03EB8002C2F8001CC9
:1036E00070477D4A02EB8001D1F8001C48F68F62DA
:1036F000114048F280021143774B03EB8002C2F87D
:10370000001C7047744A02EB8001D1F8001C48F697
:103710008F62114048F2800211436F4B03EB80022D
:10372000C2F8001C70476C4A02EB8001D1F8001C03
:1037300041F4807148F68F72114048F280021143C3
:10374000654B03EB8002C2F8001C7047624A02EB33
:103750008001D1F8001C41F4807148F68F7211404D
:1037600048F2800211435C4B03EB8002C2F8001C5C
:103770007047594A02EB8001D1F8001C48F68F626D
:10378000114048F280021143534B03EB8002C2F810
:10379000001C70470146504A02EB8100D0F8000C33
:1037A00000F03000102801D1012070470020FCE714
:1037B0000146494A02EB8100D0F8000C00F4405069
:1037C000B0F5805F01D1012070470020FCE7424A3C
:1037D00002EB8001D1F8001CC1F30E0148F68F7294
:1037E00011403D4B03EB8002C2F8001C70473A4A7F
:1037F00002EB8001D1F8001C48F60F721140364BE5
:1038000003EB8002C2F8001C7047334A02EB8001D0
:10381000D1F8001C48F68F7211404CF2800211431F
:103820002D4B03EB8002C2F8001C70472A4A02EBC2
:103830008001D1F8001C48F68F72114048F2C00296
:103840001143254B03EB8002C2F8001C7047224A4B
:1038500002EB8001D1F8001C01F4804171B102EB50
:103860008001D1F8001C48F68F7211404CF28002A2
:103870001143194B03EB8002C2F8001C7047164A33
:1038800002EB8001D1F8001C01F0400171B102EBA4
:103890008001D1F8001C48F68F72114048F2C00236
:1038A00011430D4B03EB8002C2F8001C704710B5AA
:1038B000094B03EB8002D2F8002C48F68F731A40B4
:1038C00048F280031A430A43034C04EB8003C3F815
:1038D000002C10BD405C0040005000400146FC4AF6
:1038E00002EB8100D0F8000C00F00F00704710B51B
:1038F0004A105200F74B1B689BB203EBC003F64C17
:1039000044F8132010BD10B54A105300F14A126854
:1039100092B202EBC002121DEF4C44F8123010BDFF
:103920000146EC48006880B200EBC100EA4A32F878
:10393000100080B270470146E648006880B200EB94
:10394000C100001DE44A32F8100080B27047E14A1D
:10395000126892B202EBC002921CDF4B43F81210C5
:10396000704702463E290BDD481101F01F030BB9D9
:10397000431E98B24FF4004343EA8023136007E0EC
:10398000481001F001030BB1431C98B2830213608D
:10399000704710B50246CF48006880B200EBC20005
:1039A000801DCD4C04EB40033E290BDD481101F096
:1039B0001F040CB9441EA0B24FF4004444EA802412
:1039C0001C6007E0481001F001040CB1441CA0B2D7
:1039D00084021C6010BD0146BE48006880B200EB46
:1039E000C100801CBC4A32F81000C0F309007047C7
:1039F0000146B848006880B200EBC100801DB64A9D
:103A000032F81000C0F30900704730B54B105B006E
:103A1000B04C2468A4B204EBC004AF4D45F8143098
:103A200053105C00AB4B1B689BB203EBC0031B1D28
:103A300045F8134030BD10B54A105200A54B1B6825
:103A40009BB203EBC003A44C44F8132010BD10B587
:103A50004A1053009F4A126892B202EBC002121D34
:103A60009D4C44F8123010BD01469A48006880B25F
:103A700000EBC100984A32F8100080B2704701464E
:103A80009448006880B200EBC100001D924A32F8F1
:103A9000100080B2704730B50B46012B1FD18D4905
:103AA000096889B201EBC001891C8B4D05EB41040B
:103AB0003E2A0BDD511102F01F050DB94D1EA9B2B2
:103AC0004FF4004545EA8125256007E0511002F0DA
:103AD00001050DB14D1CA9B28D0225600AE0022B33
:103AE00008D17C49096889B201EBC001891C7A4C74
:103AF00044F81120012B1FD17649096889B201EBE6
:103B0000C001891D744D05EB41043E2A0BDD5111A6
:103B100002F01F050DB94D1EA9B24FF4004545EA4C
:103B20008125256007E0511002F001050DB14D1C03
:103B3000A9B28D0225600AE0022B08D16549096807
:103B400089B201EBC001891D634C44F8112030BDDE
:103B500030B5034601291FD15E48006880B200EBF2
:103B6000C300801C5C4D05EB40043E2A0BDD501168
:103B700002F01F050DB9451EA8B24FF4004545EAF5
:103B80008025256007E0501002F001050DB1451CAD
:103B9000A8B2850225600AE0022908D14D480068D4
:103BA00080B200EBC300801C4B4C44F8102030BDA9
:103BB00030B5034601291FD14648006880B200EBAA
:103BC000C300801D444D05EB40043E2A0BDD50111F
:103BD00002F01F050DB9451EA8B24FF4004545EA95
:103BE0008025256007E0501002F001050DB1451C4D
:103BF000A8B2850225600AE0022908D1354800688C
:103C000080B200EBC300801D334C44F8102030BD5F
:103C100001463048006880B200EBC100801C2E4A8B
:103C200032F81000C0F309007047014629480068C7
:103C300080B200EBC100801D274A32F81000C0F3AB
:103C40000900704701462348006880B200EBC100BC
:103C5000801D214A32F8100000F47C4008B1012098
:103C600070471C48006880B200EBC100801C1A4AF3
:103C700032F81000C0F3090008B10220F0E700207C
:103C8000EEE710B5012910D1114B03EB8002D2F8F9
:103C9000002C48F68F731A4048F2C0031A430C4CAC
:103CA00004EB8003C3F8002C11E002290FD1084B6C
:103CB00003EB8002D2F8002C48F68F731A404CF2C6
:103CC00080031A43024C04EB8003C3F8002C10BDA0
:103CD00000500040505C004000600040024641EA55
:103CE000022070470146CAB20B1243EA0220704715
:103CF00000201D4908604FF43F401C4908800846D9
:103D000000881949091F0860002070472DE9F0411B
:103D100004460E46154604F07F00FFF701FE0746F5
:103D2000AAB239463046FFF7B1FBA9B204F07F00D2
:103D3000FFF70DFE0020BDE8F0812DE9F0410446BB
:103D40000E46002504F07F00FFF752FE054604F002
:103D50007F00FFF7F0FD07462A4639463046FFF759
:103D6000AFFB2846BDE8F081445C00404E000020D7
:103D700010B50020FDF7CEFA0121C805FDF777FB4D
:103D800010BD03205349086070475348817A19B128
:103D90000521504A116002E001214E4A116070472E
:103DA0000EB54FF4A060FDF7BDFD4FF48020FDF788
:103DB000ACFE4FF48020009008208DF80500012013
:103DC0008DF806006846FDF729FE14208DF80800DE
:103DD00002208DF8090000208DF80A0001208DF8DE
:103DE0000B0002A8FDF7A3FD2A208DF80800012092
:103DF0008DF8090002A8FDF79AFD0EBD38B50546FD
:103E00000C46002000908DF800508DF801400222F1
:103E100069468120FFF77AFF0120FFF71FFC38BDBC
:103E200053212E4A1170312151703221917030216D
:103E3000D1703121117135215171302191713721AA
:103E4000D171082004E03021244A1154411CC8B229
:103E50002328F8DB704710B5232220498120FFF783
:103E600055FF0120FFF7FAFB10BD30B50B460021CE
:103E700000BF16E00A24B4EB107F05D9302404EB10
:103E8000107403F8114005E0412404EB10740A3C5F
:103E900003F81140000100254C00641C1D554C1C0A
:103EA000E1B29142E6DB30BD70B50D480468001DFB
:103EB0000568001D0668344454B1082209492046AB
:103EC000FFF7D3FF0422074910312846FFF7CDFF43
:103ED00070BD000054010020F00200200C030020FF
:103EE000E8F7FF1F5B00002010B500F00DF810BDD3
:103EF00010B54FF48020FDF708FE10BD01200149E8
:103F0000087070475800002010B588B00024684839
:103F10000068684908800846008800F40040664947
:103F20000988084008B1FFF713F96248008800F4D7
:103F3000806061490988084030B14FF6FF305C4924
:103F400008605E49486880475A48008800F400507D
:103F500059490988084018B14DF6FF705449086066
:103F60005448008800F4805053490988084030B113
:103F70004EF6FF704E490860002000F0FBF94D48F6
:103F8000008800F400604C490988084060B14C4842
:103F9000007810B100F0CEF902E0022000F0EAF95A
:103FA0004FF2FF70424908604248008800F40070F8
:103FB00041490988084040B14FF6FF503C4908602C
:103FC00040480078401C3F4908703A48008800F497
:103FD0008070394909880840002866D04FF6FF6094
:103FE00033490860081D006800F40040002856D0DE
:103FF00035480068401C34490860084600680328BA
:1040000050D92B48001F006800F00800002849D153
:104010002748001F006880B22C490860002408E08F
:104020002B4901EB8400D0F8000C80B24DF824003D
:10403000641C082CF4D32548006840F00100234993
:1040400008600846006880B21949091F08601F48C7
:10405000006820F001001D4908600846006880B231
:104060001349091F086000BF1148006800F4806010
:104070000028F9D04FF6FF300D490860002408E011
:104080005DF8240080B2124A02EB8401C1F8000CF2
:10409000641C082CF4D300200B49086002E00020C7
:1040A00009490860072000F065F908B010BD00005C
:1040B000445C0040740000204E000020C00000203E
:1040C0005801002076000020780000207C000020AD
:1040D0000050004010B5FFF7E7FE0020794909685D
:1040E000887200F005F9FFF703FE002076490860AA
:1040F00010BD10B5002073490968887271490968BC
:10410000C8727248C0796F49096848720020FFF789
:1041100009FA4FF400710020FFF71EFA1021002069
:10412000FFF733FA18210020FFF7EDFB582100209C
:10413000FFF7DDFB0020FFF7E5FA654890F82C104B
:104140000020FFF726FC0020FFF7A0FA4FF4C06123
:104150000120FFF701FA4FF480710120FFF7C7FB40
:1041600004210120FFF7F3FB00210120FFF72BFAC8
:1041700020210120FFF709FA0020FEF73CFF012073
:104180005149086010BD5348817A11B105214E4A4A
:104190001160704704204C490860704770477047B1
:1041A000014629B90120474A126810820020704751
:1041B0004948FCE710B5044648492046FEF711FC83
:1041C00010BD10B5044646492046FEF70AFC10BD56
:1041D00070B504460025062C1AD13A4800680078CC
:1041E00000F07F00012813D136480068407978B983
:1041F000344800688078222802D1AFF2390512E0F5
:1042000030480068807821280DD1AFF257050AE0C8
:104210002C480068007800F07F00212803D1032C8F
:1042200001D1AFF283050DB9022070BD25480068A9
:10423000856100212348006841820020A8470020B2
:10424000F3E720480068C1782348016000207047E8
:1042500000B502461B480068007800F07F00212866
:1042600004D10B2A02D1FFF7ECFF00BD0220FCE7CE
:1042700010B504461B492046FEF7B3FB10BD10B530
:10428000044619492046FEF7ACFB10BD70B5054643
:104290000C480068C478042C01DD002070BD134870
:1042A00000EBC4012846FEF79CFBF7E70246002915
:1042B00001DD02207047002A01DD0220FAE700201C
:1042C000F8E700004400002054010020CA4600081E
:1042D000C0000020F0020020B80000202C010020C7
:1042E00024010020140100201C01002034010020C2
:1042F0000121514801600020504A1080104600887A
:104300004D4A10600020121D10604FF4E0504B4ADF
:10431000108010460088484A106000207047012035
:10432000454908600020091D08600320091F086036
:104330000020704710B54048006884B244F008047B
:104340003D480460006884B244F004043A480460C4
:10435000FFF717FD10BD10B53748006884B224F090
:10436000040435480460FFF710FD4FF43F40324924
:10437000086010BD70B50546072D01D030480570A6
:104380002F48007808284ED2DFE800F004111A20E8
:104390002B384E4F2B48006828B9FFF7DCFF06206A
:1043A0002749087002E005202549087041E0FFF721
:1043B000D2FF04202249087001202249086038E019
:1043C00002201F4948700320087032E01C484078E2
:1043D000401E1B4948700846407808B90420087000
:1043E00027E01548006884B244F0100412480460C5
:1043F0000520134908700A2048701AE010484078D8
:10440000401E0F4948700846407858B90A4800686D
:1044100084B224F0100408480460062008700020CC
:104420000849086005E000BF00BF06200449087085
:1044300000BF00BF70BD0000405C00404E00002087
:10444000590100205C010020704700000FB40449AE
:1044500010B503AA029800F0D1F810BC5DF814FB67
:10446000200000202DE9F0410E4604460020206285
:104470002046E168884730B3252805D0D4E90121DA
:104480009047206A401CF2E7E168204600278847F1
:10449000050018D0A5F14100192802D820354FF4A5
:1044A00000673246294620462760FBF79BFE40B155
:1044B000012804D0F61D26F007060836D8E7361D79
:1044C000D6E72846DAE7206ABDE8F0812DE9F04119
:1044D0000646002410687529314615A510D0AFF3A3
:1044E0000080002802DA404212A507E031688A07FE
:1044F00001D511A502E0490704D510A5012401E06A
:10450000AFF3008000210A2306F1240707E0B0FB87
:10451000F3F203FB1200303078541046491C002897
:10452000F5D123462A463046BDE8F04100F00CB8EC
:10453000000000002D0000002B0000002000000003
:1045400070477047704770472DE9F0470D46994610
:104550009246044600F124080168880604D5E06903
:1045600021F01001216000E00120A84201DD471B7D
:1045700000E00027A1697A1902EB0900081AA0617E
:104580002078C00602D42046AFF30080002608E061
:10459000D4E901211AF806009047206A401C761CD5
:1045A00020624E45F4DB2078C0060AD52046AFF3E2
:1045B000008006E0D4E9012130209047206A401CA9
:1045C0002062381EA7F10107F4DC07E0D4E90121DD
:1045D00018F805009047206A401C2062281EA5F1AB
:1045E0000105F3DC2046AFF300802078000602D5F9
:1045F0000220BDE8F0870120FBE70000074B70B503
:104600000D467B4400F011F80446284600F020F8DF
:1046100010B14FF0FF3070BD204670BD95C6FFFF52
:1046200001694A1C02610878704700B58FB0CDE976
:1046300001310021059105497944CDE90310114666
:104640006846FFF70FFF0FB000BD0000E5FFFFFF5A
:10465000007B00F080007047754600F029F8AE46F8
:1046600005006946534620F00700854618B020B57E
:10467000FCF7C2FBBDE820404FF000064FF00007FA
:104680004FF000084FF0000B21F00701AC46ACE8FA
:10469000C009ACE8C009ACE8C009ACE8C0098D4667
:1046A00070470446AFF300802046FBF7ADFD0000E5
:1046B0000048704730030020120100020000004053
:1046C0008388101100020102030109022200010186
:1046D00000E032090400000103000000092100018C
:1046E000000122150007058103230020058C090124
:1046F000A101150025FF19012902952375088102E2
:10470000C0040309041A037F5EDE5D1F66FC7F356B
:1047100075505BD1796280096750966C51F85322CD
:10472000035A005400450020007A66FD80B65B45C0
:104730005C0000000000000000000000000000001D
:104740000000000064470008000000206001000035
:104750006C010008F84700086001002030080000E4
:10476000C80100081184A24A0400091601020304CA
:1047700006070809291E6922051E020406081501FC
:104780001A03531254124D1233021C3213FD3E0C05
:104790003008E530044123020113D5401B08F3041F
:1047A000139D411B089F041AD1041351421B08ADED
:1047B000041A71041A7F041A8D04413240293C1AEC
:1047C00087240916581A951C13B8463308121ACABA
:1047D0000832221AEC0832151ADC082A09DC1247C2
:1047E0003308041A0508321A1A1F08292822592AE0
:0847F000201041199B5100004B
:0400000508000131BD
:00000001FF
